{
  "contractName": "LandModifiers",
  "abi": [
    {
      "inputs": [
        {
          "internalType": "address",
          "name": "",
          "type": "address"
        }
      ],
      "name": "verifiers",
      "outputs": [
        {
          "internalType": "bool",
          "name": "",
          "type": "bool"
        }
      ],
      "stateMutability": "view",
      "type": "function"
    }
  ],
  "bytecode": "0x60808060405234601457609d90816100198239f35b5f80fdfe60808060405260043610156011575f80fd5b5f90813560e01c636c824487146025575f80fd5b3460635760203660031901126063576004356001600160a01b03811690819003605f5760408360ff92602095526001855220541615158152f35b8280fd5b5080fdfea264697066735822122091bf714fb8a1a5c6e62cc86a1375fdbb5f55a21c0958e123557e8beead9254e264736f6c63430008140033",
  "immutableReferences": {},
  "source": "// SPDX-License-Identifier: MIT\r\npragma solidity ^0.8.20;\r\n\r\nimport \"./LandStructs.sol\";\r\n\r\ncontract LandModifiers {\r\n    mapping(uint256 => Land) internal lands;\r\n    mapping(address => bool) public verifiers;\r\n\r\n    modifier onlyOwner(uint256 _landId) {\r\n        bool isOwner = false;\r\n        for(uint i = 0; i < lands[_landId].owners.length; i++) {\r\n            if(lands[_landId].owners[i] == msg.sender) {\r\n                isOwner = true;\r\n                break;\r\n            }\r\n        }\r\n        require(isOwner, \"Not land owner\");\r\n        _;\r\n    }\r\n\r\n    modifier onlyVerifier() {\r\n        require(verifiers[msg.sender], \"Not authorized verifier\");\r\n        _;\r\n    }\r\n\r\n    function _initializeVerifier(address _verifier) internal {\r\n        verifiers[_verifier] = true;\r\n    }\r\n\r\n    function _getLand(uint256 _landId) internal view returns (Land memory) {\r\n        return lands[_landId];\r\n    }\r\n} ",
  "sourcePath": "C:\\Users\\ankit\\Desktop\\SEM-6\\BC\\Land Registration\\contracts\\LandModifiers.sol",
  "compiler": {
    "name": "solc",
    "version": "0.8.20+commit.a1b79de6.Emscripten.clang"
  },
  "schemaVersion": "3.4.16",
  "updatedAt": "2025-04-27T02:56:10.894Z",
  "devdoc": {
    "kind": "dev",
    "methods": {},
    "version": 1
  },
  "userdoc": {
    "kind": "user",
    "methods": {},
    "version": 1
  }
}