{
  "contractName": "LandRegistry",
  "abi": [
    {
      "inputs": [],
      "stateMutability": "nonpayable",
      "type": "constructor"
    },
    {
      "anonymous": false,
      "inputs": [
        {
          "indexed": true,
          "internalType": "uint256",
          "name": "landId",
          "type": "uint256"
        },
        {
          "indexed": true,
          "internalType": "address",
          "name": "complainant",
          "type": "address"
        }
      ],
      "name": "DisputeRaised",
      "type": "event"
    },
    {
      "anonymous": false,
      "inputs": [
        {
          "indexed": true,
          "internalType": "uint256",
          "name": "landId",
          "type": "uint256"
        },
        {
          "indexed": true,
          "internalType": "address",
          "name": "resolver",
          "type": "address"
        }
      ],
      "name": "DisputeResolved",
      "type": "event"
    },
    {
      "anonymous": false,
      "inputs": [
        {
          "indexed": true,
          "internalType": "uint256",
          "name": "landId",
          "type": "uint256"
        },
        {
          "indexed": false,
          "internalType": "string",
          "name": "documentHash",
          "type": "string"
        }
      ],
      "name": "DocumentAdded",
      "type": "event"
    },
    {
      "anonymous": false,
      "inputs": [
        {
          "indexed": true,
          "internalType": "uint256",
          "name": "landId",
          "type": "uint256"
        },
        {
          "indexed": false,
          "internalType": "string",
          "name": "documentHash",
          "type": "string"
        }
      ],
      "name": "DocumentRemoved",
      "type": "event"
    },
    {
      "anonymous": false,
      "inputs": [
        {
          "indexed": true,
          "internalType": "uint256",
          "name": "landId",
          "type": "uint256"
        },
        {
          "indexed": true,
          "internalType": "address",
          "name": "owner",
          "type": "address"
        }
      ],
      "name": "LandRegistered",
      "type": "event"
    },
    {
      "anonymous": false,
      "inputs": [
        {
          "indexed": true,
          "internalType": "uint256",
          "name": "landId",
          "type": "uint256"
        },
        {
          "indexed": false,
          "internalType": "string",
          "name": "newStatus",
          "type": "string"
        }
      ],
      "name": "LandStatusChanged",
      "type": "event"
    },
    {
      "anonymous": false,
      "inputs": [
        {
          "indexed": true,
          "internalType": "uint256",
          "name": "landId",
          "type": "uint256"
        },
        {
          "indexed": false,
          "internalType": "uint256",
          "name": "newValuation",
          "type": "uint256"
        }
      ],
      "name": "LandValuationUpdated",
      "type": "event"
    },
    {
      "anonymous": false,
      "inputs": [
        {
          "indexed": true,
          "internalType": "uint256",
          "name": "landId",
          "type": "uint256"
        },
        {
          "indexed": true,
          "internalType": "address",
          "name": "verifier",
          "type": "address"
        }
      ],
      "name": "LandVerified",
      "type": "event"
    },
    {
      "anonymous": false,
      "inputs": [
        {
          "indexed": true,
          "internalType": "uint256",
          "name": "landId",
          "type": "uint256"
        },
        {
          "indexed": true,
          "internalType": "address",
          "name": "from",
          "type": "address"
        },
        {
          "indexed": true,
          "internalType": "address",
          "name": "to",
          "type": "address"
        }
      ],
      "name": "OwnershipTransferred",
      "type": "event"
    },
    {
      "anonymous": false,
      "inputs": [
        {
          "indexed": true,
          "internalType": "uint256",
          "name": "landId",
          "type": "uint256"
        }
      ],
      "name": "SaleStatusReverted",
      "type": "event"
    },
    {
      "inputs": [],
      "name": "landCounter",
      "outputs": [
        {
          "internalType": "uint256",
          "name": "",
          "type": "uint256"
        }
      ],
      "stateMutability": "view",
      "type": "function",
      "constant": true
    },
    {
      "inputs": [
        {
          "internalType": "address",
          "name": "",
          "type": "address"
        },
        {
          "internalType": "uint256",
          "name": "",
          "type": "uint256"
        }
      ],
      "name": "ownerToLands",
      "outputs": [
        {
          "internalType": "uint256",
          "name": "",
          "type": "uint256"
        }
      ],
      "stateMutability": "view",
      "type": "function",
      "constant": true
    },
    {
      "inputs": [
        {
          "internalType": "address",
          "name": "",
          "type": "address"
        }
      ],
      "name": "verifiers",
      "outputs": [
        {
          "internalType": "bool",
          "name": "",
          "type": "bool"
        }
      ],
      "stateMutability": "view",
      "type": "function",
      "constant": true
    },
    {
      "inputs": [
        {
          "internalType": "string",
          "name": "_location",
          "type": "string"
        },
        {
          "internalType": "uint256",
          "name": "_area",
          "type": "uint256"
        }
      ],
      "name": "registerLand",
      "outputs": [],
      "stateMutability": "nonpayable",
      "type": "function"
    },
    {
      "inputs": [
        {
          "internalType": "uint256",
          "name": "_landId",
          "type": "uint256"
        },
        {
          "internalType": "address",
          "name": "_to",
          "type": "address"
        }
      ],
      "name": "transferLand",
      "outputs": [],
      "stateMutability": "nonpayable",
      "type": "function"
    },
    {
      "inputs": [
        {
          "internalType": "uint256",
          "name": "_landId",
          "type": "uint256"
        },
        {
          "internalType": "uint256",
          "name": "_newValuation",
          "type": "uint256"
        }
      ],
      "name": "updateValuation",
      "outputs": [],
      "stateMutability": "nonpayable",
      "type": "function"
    },
    {
      "inputs": [
        {
          "internalType": "uint256",
          "name": "_landId",
          "type": "uint256"
        },
        {
          "internalType": "uint256",
          "name": "_price",
          "type": "uint256"
        }
      ],
      "name": "setForSale",
      "outputs": [],
      "stateMutability": "nonpayable",
      "type": "function"
    },
    {
      "inputs": [
        {
          "internalType": "uint256",
          "name": "_landId",
          "type": "uint256"
        },
        {
          "internalType": "string",
          "name": "_documentHash",
          "type": "string"
        }
      ],
      "name": "addDocument",
      "outputs": [],
      "stateMutability": "nonpayable",
      "type": "function"
    },
    {
      "inputs": [
        {
          "internalType": "uint256",
          "name": "_landId",
          "type": "uint256"
        }
      ],
      "name": "verifyLand",
      "outputs": [],
      "stateMutability": "nonpayable",
      "type": "function"
    },
    {
      "inputs": [
        {
          "internalType": "uint256",
          "name": "_landId",
          "type": "uint256"
        },
        {
          "internalType": "string",
          "name": "_reason",
          "type": "string"
        }
      ],
      "name": "raiseDispute",
      "outputs": [],
      "stateMutability": "nonpayable",
      "type": "function"
    },
    {
      "inputs": [
        {
          "internalType": "uint256",
          "name": "_landId",
          "type": "uint256"
        },
        {
          "internalType": "uint256",
          "name": "_disputeIndex",
          "type": "uint256"
        },
        {
          "internalType": "string",
          "name": "_resolution",
          "type": "string"
        }
      ],
      "name": "resolveDispute",
      "outputs": [],
      "stateMutability": "nonpayable",
      "type": "function"
    },
    {
      "inputs": [],
      "name": "getMyLands",
      "outputs": [
        {
          "internalType": "uint256[]",
          "name": "",
          "type": "uint256[]"
        }
      ],
      "stateMutability": "view",
      "type": "function",
      "constant": true
    },
    {
      "inputs": [
        {
          "internalType": "uint256",
          "name": "_landId",
          "type": "uint256"
        }
      ],
      "name": "getLandDetails",
      "outputs": [
        {
          "internalType": "uint256",
          "name": "id",
          "type": "uint256"
        },
        {
          "internalType": "string",
          "name": "location",
          "type": "string"
        },
        {
          "internalType": "uint256",
          "name": "area",
          "type": "uint256"
        },
        {
          "internalType": "address[]",
          "name": "owners",
          "type": "address[]"
        },
        {
          "internalType": "bool",
          "name": "isRegistered",
          "type": "bool"
        },
        {
          "internalType": "uint256",
          "name": "valuation",
          "type": "uint256"
        },
        {
          "internalType": "bool",
          "name": "isForSale",
          "type": "bool"
        },
        {
          "internalType": "uint256",
          "name": "price",
          "type": "uint256"
        },
        {
          "internalType": "string",
          "name": "status",
          "type": "string"
        },
        {
          "internalType": "string[]",
          "name": "documents",
          "type": "string[]"
        },
        {
          "internalType": "bool",
          "name": "isVerified",
          "type": "bool"
        },
        {
          "internalType": "address",
          "name": "verifiedBy",
          "type": "address"
        },
        {
          "internalType": "uint256",
          "name": "verificationDate",
          "type": "uint256"
        }
      ],
      "stateMutability": "view",
      "type": "function",
      "constant": true
    },
    {
      "inputs": [
        {
          "internalType": "uint256",
          "name": "_landId",
          "type": "uint256"
        }
      ],
      "name": "getLandHistory",
      "outputs": [
        {
          "internalType": "address[]",
          "name": "previousOwners",
          "type": "address[]"
        },
        {
          "internalType": "uint256[]",
          "name": "transferDates",
          "type": "uint256[]"
        }
      ],
      "stateMutability": "view",
      "type": "function",
      "constant": true
    },
    {
      "inputs": [
        {
          "internalType": "uint256",
          "name": "_landId",
          "type": "uint256"
        }
      ],
      "name": "getLandDisputes",
      "outputs": [
        {
          "components": [
            {
              "internalType": "uint256",
              "name": "landId",
              "type": "uint256"
            },
            {
              "internalType": "address",
              "name": "complainant",
              "type": "address"
            },
            {
              "internalType": "string",
              "name": "reason",
              "type": "string"
            },
            {
              "internalType": "bool",
              "name": "isResolved",
              "type": "bool"
            },
            {
              "internalType": "string",
              "name": "resolution",
              "type": "string"
            },
            {
              "internalType": "address",
              "name": "resolvedBy",
              "type": "address"
            },
            {
              "internalType": "uint256",
              "name": "resolutionDate",
              "type": "uint256"
            }
          ],
          "internalType": "struct Dispute[]",
          "name": "",
          "type": "tuple[]"
        }
      ],
      "stateMutability": "view",
      "type": "function",
      "constant": true
    },
    {
      "inputs": [
        {
          "internalType": "uint256",
          "name": "_landId",
          "type": "uint256"
        },
        {
          "internalType": "string",
          "name": "_documentHash",
          "type": "string"
        }
      ],
      "name": "removeDocument",
      "outputs": [],
      "stateMutability": "nonpayable",
      "type": "function"
    },
    {
      "inputs": [
        {
          "internalType": "uint256",
          "name": "_landId",
          "type": "uint256"
        }
      ],
      "name": "revertSaleStatus",
      "outputs": [],
      "stateMutability": "nonpayable",
      "type": "function"
    }
  ],
  "bytecode": "0x6080806040523461002d57335f52600160205260405f20600160ff19825416179055611ea890816100328239f35b5f80fdfe60806040526004361015610011575f80fd5b5f3560e01c80630695b9c31461176757806317fcfe22146116545780632aa0a1ca1461151c57806339577db1146114c55780634f389721146114655780635aef573c146113205780636c824487146112e35780636dc0fc6b1461121457806372b3f92114610fca5780638bfb1d0714610ed05780639e29ce1814610eb3578063c49cd18914610d48578063c798ff7d14610aa9578063ce924ed914610607578063f3c2749d14610468578063f9c43bdf146103975763fe0cb7dc146100d4575f80fd5b34610393576020366003190112610393575f6101806040516100f581611869565b828152606060208201528260408201526060808201528260808201528260a08201528260c08201528260e082015260606101008201526060610120820152826101408201528261016082015201526004355f525f60205260405f2060405161015c81611869565b8154815260405161017b816101748160018701611cb4565b03826118bb565b60208201526002820154604082015261019660038301611d45565b606082015260ff60048301541615156080820152600582015460a082015260ff600683015416151560c0820152600782015460e08201526040516101e1816101748160088701611cb4565b61010082015260098201546101f5816119af565b9261020360405194856118bb565b818452602084019182600983015f5260205f205f915b83831061036e575050505083610120840152600a8101549060ff82161515610140850152600160a01b600190038260081c16610160850152600b01549081610180850152835193602081015190604081015190606081015191608082015115159260a08301519060c084015115159260e0850151946101000151966040519b8c528b6101a06020819201528c016102af91611963565b9060408c01528a810360608c01526102c691611812565b9360808a015260a089015260c088015260e08701528581036101008701526102ed91611963565b948486036101208601525180865260208601908060051b870160200194915f905b8282106103435760ff85161515610140890152600885901c6001600160a01b0316610160890152610180880186905287870388f35b90919295602080610360600193601f198d82030186528a51611963565b98019201920190929161030e565b600160208192604051610385816101748189611cb4565b815201920192019190610219565b5f80fd5b3461039357602036600319011261039357600435335f5260016020526103c360ff60405f205416611c03565b805f525f60205260405f20600a810180549060ff821661042b576001600160a81b03199091163360081b610100600160a81b0316176001179055600b4291015533907ffb9625d8f3292b4f2c77920987a97b46155b934995873c85e64429df037b005b5f80a3005b60405162461bcd60e51b815260206004820152601560248201527413185b9908185b1c9958591e481d995c9a599a5959605a1b6044820152606490fd5b3461039357602080600319360112610393576004355f526004815260405f2090815491610494836119af565b926104a260405194856118bb565b80845282840180925f52835f205f915b8383106105775750505050604051918083019381845251809452604083019360408160051b85010192915f955b8287106104ec5785850386f35b909192938280600192603f1989820301855287519081518152848060a01b039182848201511684830152610551610532604083015160e0604086015260e0850190611963565b6060808401511515908501526080808401519085830390860152611963565b9260a09081830151169083015260c08091015191015296019201960195929190926104df565b60078660019260409998995161058c8161184e565b85548152848060a01b03808688015416848301526040516105b4816101748160028c01611cb4565b604083015260ff600388015416151560608301526040516105dc816101748160048c01611cb4565b608083015260058701541660a0820152600686015460c08201528152019201920191909594956104b2565b34610393576040366003190112610393576004356001600160401b038111610393576106379036906004016118dc565b6106426002546119a1565b8060025560405190610653826118a0565b600182526020820160203682378251156109a85733905260405161067681611885565b5f81526040519361068685611869565b82855260208501526024356040850152826060850152600160808501525f60a08501525f60c08501525f60e08501526040516106c1816118a0565b600a815269149959da5cdd195c995960b21b60208201526101008501526101208401525f6101408401525f6101608401525f6101808401525f525f60205260405f2082518155610718602084015160018301611a7f565b6040830151600282015560608301518051906001600160401b0382116109d057600160401b82116109d0576020600384019161075984845481865585611b40565b01905f5260205f205f5b838110610a8c575050505061078d60808401511515600483019060ff801983541691151516179055565b60a083015160058201556107b660c08401511515600683019060ff801983541691151516179055565b60e083015160078201556107d261010084015160088301611a7f565b610120830151805190600160401b82116109d0576009830154826009850155808310610a17575b50602001600983015f5260205f205f915b8383106109fa5750505050600b610180600a83019461083c6101408201511515879060ff801983541691151516179055565b6101608101518654610100600160a81b03191660089190911b610100600160a81b0316179095556001600160a01b039401519101556040519061087e826118a0565b600182526020368184013760405190604082018281106001600160401b038211176109d0576040528152602081019182526002545f52600360205260405f2090518051906001600160401b0382116109d057600160401b82116109d0576020906108ed83855481875586611b40565b0193825f5260205f20905f5b8381106109e4578551805160018701916001600160401b0382116109d057600160401b82116109d05760209061093483855481875586611b40565b01915f5260205f20915f5b8281106109bc576002545f526003602052600160405f20018054156109a8575f524260205f2055335f52600560205261097e60405f2060025490611b61565b336002547fcb4990052f95f6057496d19524f6c3163f50af9f33f2c15b092928e03414323e5f80a3005b634e487b7160e01b5f52603260045260245ffd5b60019060208351930192818601550161093f565b634e487b7160e01b5f52604160045260245ffd5b60019060208389511698019781850155016108f9565b6001602082610a0b83945186611a7f565b0192019201919061080a565b600984015f5260205f20908382015b8183018110610a365750506107f9565b80610a43600192546119c6565b80610a50575b5001610a26565b601f908181118414610a685750505f81555b89610a49565b610a835f9284845260208420920160051c82018583016119fe565b81835555610a62565b82516001600160a01b031681830155602090920191600101610763565b34610393576040366003190112610393576001600160a01b03602480358281169290600435848203610393575f935f5b825f525f60205260038060405f20018054831015610d3857610afc8388926117fd565b929092339354911b1c1614610b1957610b14906119a1565b610ad9565b509091929350610b296001611b84565b815f525f60205260405f2090610b4560ff600484015416611bc1565b60038092015f5b8154811015610d2c5786610b6082846117fd565b905490861b1c163314610b7b57610b76906119a1565b610b4c565b859650610b8f90610bae93949596926117fd565b90919082549060031b9160018060a01b03809116831b921b1916179055565b825f528160205260405f20938454600160401b811015610d195790610b8f610bdd9260019788820181556117fd565b825f5281602052610bf48460405f20014290611b61565b845f526005602052610c098360405f20611b61565b335f52600560205260405f2090845f905b610c48575b8633867f16b85f49bf01212961345d3016c9a531894accf62eb7680f2045d79185cc0ec05f80a4005b825480821015610d135785610c5d83866117fd565b905490871b1c14610c785750610c72906119a1565b85610c1a565b92939495505f1992838101908111610d005790610ca8610c9b610cc093876117fd565b905490881b1c91866117fd565b90919082549060031b91821b915f19901b1916179055565b8254908115610ced5750810192610cd784846117fd565b81939154921b1b19169055558083808080610c1f565b634e487b7160e01b5f9081526031600452fd5b82634e487b7160e01b5f5260116004525ffd5b50610c1f565b82634e487b7160e01b5f5260416004525ffd5b50509091929350610bae565b50505090919293610b2990611b84565b34610393576060366003190112610393576004356024356044356001600160401b03811161039357610d7e9036906004016118dc565b90335f526001602052610d9760ff60405f205416611c03565b825f52600460205260405f2054811015610e7657610dc090835f52600460205260405f20611c4f565b5090600382019081549160ff8316610e31576001610de89360ff191617905560048301611a7f565b60058101336bffffffffffffffffffffffff60a01b82541617905560064291015533907ff77ceb5e091d2da041bc760667f9d5fe7a756949eaf29250ad0e60ca6f4c27d95f80a3005b60405162461bcd60e51b815260206004820152601860248201527f4469737075746520616c7265616479207265736f6c76656400000000000000006044820152606490fd5b60405162461bcd60e51b8152602060048201526015602482015274092dcecc2d8d2c840c8d2e6e0eae8ca40d2dcc8caf605b1b6044820152606490fd5b34610393575f366003190112610393576020600254604051908152f35b3461039357610ede36611931565b5f905f5b835f525f60205260038060405f20018054831015610fbd5782610f04916117fd565b9054911b1c6001600160a01b03163314610f2657610f21906119a1565b610ee2565b509050610f336001611b84565b815f525f602052600960405f20018054600160401b8110156109d057610f5e916001820181556117fd565b610faa5781610f917fa27affd73e620d6edea4d8c6cb3e758783e547c2332422a234998f2cdab6e6fd93610fa593611a7f565b604051918291602083526020830190611963565b0390a2005b634e487b7160e01b5f525f60045260245ffd5b50505090610f3390611b84565b3461039357610fd836611931565b905f905f5b815f525f60205260038060405f200180548310156112075782610fff916117fd565b9054911b1c6001600160a01b031633146110215761101c906119a1565b610fdd565b50905061102e6001611b84565b805f526020905f8252600960405f2061104d60ff600483015416611bc1565b01925f805f8654905b8181106111be575b505015611184575b84545f1981019081116110b6578110156110ca57600181018082116110b65761108f90866117fd565b509061109b81876117fd565b610faa576110b1926110ac91611d9a565b6119a1565b611066565b634e487b7160e01b5f52601160045260245ffd5b5090929182548015611170575f19016110e381856117fd565b949094610faa57846111167f8058f5553f7dc798c5740b6eb3e49825c7f217e8d66b05b027b14d7185c442a696546119c6565b9081611134575b505055610fa5604051928284938452830190611963565b81601f5f931160011461114b5750555b868061111d565b908083918252611169601f888420940160051c8401600185016119fe565b5555611144565b634e487b7160e01b5f52603160045260245ffd5b60405162461bcd60e51b8152600481018590526012602482015271111bd8dd5b595b9d081b9bdd08199bdd5b9960721b6044820152606490fd5b6101746111db6111ce838b6117fd565b5060405192838092611cb4565b878151910120855188870120146111fa576111f5906119a1565b611056565b925050506001868061105e565b5050509061102e90611b84565b3461039357611222366117d1565b5f905f5b835f525f60205260038060405f200180548310156112b35782611248916117fd565b9054911b1c6001600160a01b0316331461126a57611265906119a1565b611226565b507fe29afb67e52980447acbc6b768323b7c22a798256f8af0d6884feb4556f66aa1915060209061129b6001611b84565b835f525f825280600560405f200155604051908152a2005b50505060209061129b7fe29afb67e52980447acbc6b768323b7c22a798256f8af0d6884feb4556f66aa193611b84565b34610393576020366003190112610393576001600160a01b036113046117e7565b165f526001602052602060ff60405f2054166040519015158152f35b346103935761132e36611931565b815f525f60205261134860ff600460405f20015416611bc1565b815f52600460205260405f20604051906113618261184e565b83825260208201923384526040830190815260608301905f82526040519461138886611885565b5f86526080850195865260a08501925f845260c08601945f86528054600160401b8110156109d0576113bf91600182018155611c4f565b979097610faa5761142161142b92600698518a5561140960018b019660018060a01b0380975116976bffffffffffffffffffffffff60a01b98898254161790555160028c01611a7f565b51151560038a019060ff801983541691151516179055565b5160048801611a7f565b60058601925116908254161790555191015533907f84a477df8a28a4276ca6dee4458a06c3015f30c477d9c949ede4e13ff8a552b45f80a3005b34610393576020366003190112610393576004355f5260036020526114b360405f206114c161149f600161149884611d45565b9301611c68565b604051938493604085526040850190611812565b90838203602085015261179e565b0390f35b34610393576040366003190112610393576114de6117e7565b6001600160a01b03165f908152600560205260409020805460243591908210156103935760209161150e916117fd565b90546040519160031b1c8152f35b3461039357602080600319360112610393575f600435815b815f525f845260038060405f200180548310156116475782611555916117fd565b9054911b1c6001600160a01b0316331461157757611572906119a1565b611534565b5090506115846001611b84565b805f525f825260405f2061159e60ff600483015416611bc1565b60068101805460ff81161561160b57600893945060ff191690555f6007820155016115d26115cc82546119c6565b82611a14565b601469149959da5cdd195c995960b21b0190557f046777a973740df13077c5794f3f495feb68daea2e0bef6f205a3db24b18751d5f80a2005b60405162461bcd60e51b81526004810186905260146024820152734c616e64206973206e6f7420666f722073616c6560601b6044820152606490fd5b5050509061158490611b84565b3461039357611662366117d1565b5f905f5b835f525f60205260038060405f200180548310156117355782611688916117fd565b9054911b1c6001600160a01b031633146116aa576116a5906119a1565b611666565b507f303da71e4e454df3f4efecfd1f04a0d4df0bb3f84859e56bc956627103580926915060086060916116dd6001611b84565b845f525f60205260405f209060068201600160ff1982541617905560078201550161170b6115cc82546119c6565b67466f722053616c6560c01b906010820190556040519060208252600860208301526040820152a2005b50505060086060916116dd7f303da71e4e454df3f4efecfd1f04a0d4df0bb3f84859e56bc95662710358092694611b84565b34610393575f36600319011261039357335f5260056020526114c161178e60405f20611c68565b6040519182916020835260208301905b9081518082526020808093019301915f5b8281106117bd575050505090565b8351855293810193928101926001016117af565b6040906003190112610393576004359060243590565b600435906001600160a01b038216820361039357565b80548210156109a8575f5260205f2001905f90565b9081518082526020808093019301915f5b828110611831575050505090565b83516001600160a01b031685529381019392810192600101611823565b60e081019081106001600160401b038211176109d057604052565b6101a081019081106001600160401b038211176109d057604052565b602081019081106001600160401b038211176109d057604052565b604081019081106001600160401b038211176109d057604052565b90601f801991011681019081106001600160401b038211176109d057604052565b81601f82011215610393578035906001600160401b0382116109d05760405192611910601f8401601f1916602001856118bb565b8284526020838301011161039357815f926020809301838601378301015290565b9060406003198301126103935760043591602435906001600160401b03821161039357611960916004016118dc565b90565b91908251928382525f5b84811061198d575050825f602080949584010152601f8019910116010190565b60208183018101518483018201520161196d565b5f1981146110b65760010190565b6001600160401b0381116109d05760051b60200190565b90600182811c921680156119f4575b60208310146119e057565b634e487b7160e01b5f52602260045260245ffd5b91607f16916119d5565b818110611a09575050565b5f81556001016119fe565b90601f8111611a21575050565b611a3a915f52601f60205f20910160051c8101906119fe565b565b9190601f8111611a4b57505050565b611a3a925f5260205f20906020601f840160051c83019310611a75575b601f0160051c01906119fe565b9091508190611a68565b91909182516001600160401b0381116109d057611aa681611aa084546119c6565b84611a3c565b602080601f8311600114611ae05750819293945f92611ad5575b50508160011b915f199060031b1c1916179055565b015190505f80611ac0565b90601f19831695845f52825f20925f905b888210611b2857505083600195969710611b10575b505050811b019055565b01515f1960f88460031b161c191690555f8080611b06565b80600185968294968601518155019501930190611af1565b91818110611b4d57505050565b611a3a925f5260205f2091820191016119fe565b90815491600160401b8310156109d05782610ca8916001611a3a950181556117fd565b15611b8b57565b60405162461bcd60e51b815260206004820152600e60248201526d2737ba103630b7321037bbb732b960911b6044820152606490fd5b15611bc857565b60405162461bcd60e51b815260206004820152601360248201527213185b99081b9bdd081c9959da5cdd195c9959606a1b6044820152606490fd5b15611c0a57565b60405162461bcd60e51b815260206004820152601760248201527f4e6f7420617574686f72697a65642076657269666965720000000000000000006044820152606490fd5b80548210156109a8575f52600760205f20910201905f90565b906040519182815491828252602092838301915f52835f20935f905b828210611c9a57505050611a3a925003836118bb565b855484526001958601958895509381019390910190611c84565b905f9291805491611cc4836119c6565b9182825260019384811690815f14611d225750600114611ce5575b50505050565b90919394505f52602092835f2092845f945b838610611d0e57505050500101905f808080611cdf565b805485870183015294019385908201611cf7565b9294505050602093945060ff191683830152151560051b0101905f808080611cdf565b906040519182815491828252602092838301915f52835f20935f905b828210611d7757505050611a3a925003836118bb565b85546001600160a01b031684526001958601958895509381019390910190611d61565b90808214611e6e57611dac81546119c6565b906001600160401b0382116109d0578190611dd182611dcb86546119c6565b86611a3c565b5f90601f8311600114611e04575f92611df95750508160011b915f199060031b1c1916179055565b015490505f80611ac0565b81526020808220858352818320935090601f1985169083905b828210611e55575050908460019594939210611e3d57505050811b019055565b01545f1960f88460031b161c191690555f8080611b06565b8495819295850154815560018091019601940190611e1d565b505056fea264697066735822122047c3bfdb4f012c8a9b30c15440e34423e26c52506dea9ae85e1352b6f8836cea64736f6c63430008140033",
  "immutableReferences": {},
  "source": "// SPDX-License-Identifier: MIT\r\npragma solidity ^0.8.20;\r\n\r\nimport \"./LandStructs.sol\";\r\nimport \"./LandModifiers.sol\";\r\n\r\ncontract LandRegistry is LandModifiers {\r\n    uint256 public landCounter;\r\n    mapping(uint256 => OwnershipHistory) internal landHistory;\r\n    mapping(uint256 => Dispute[]) internal landDisputes;\r\n    mapping(address => uint256[]) public ownerToLands;\r\n\r\n    event LandRegistered(uint256 indexed landId, address indexed owner);\r\n    event OwnershipTransferred(uint256 indexed landId, address indexed from, address indexed to);\r\n    event LandValuationUpdated(uint256 indexed landId, uint256 newValuation);\r\n    event LandStatusChanged(uint256 indexed landId, string newStatus);\r\n    event DocumentAdded(uint256 indexed landId, string documentHash);\r\n    event LandVerified(uint256 indexed landId, address indexed verifier);\r\n    event DisputeRaised(uint256 indexed landId, address indexed complainant);\r\n    event DisputeResolved(uint256 indexed landId, address indexed resolver);\r\n    event DocumentRemoved(uint256 indexed landId, string documentHash);\r\n    event SaleStatusReverted(uint256 indexed landId);\r\n\r\n    constructor() {\r\n        _initializeVerifier(msg.sender);\r\n    }\r\n\r\n    function registerLand(string memory _location, uint256 _area) external {\r\n        landCounter++;\r\n        address[] memory initialOwners = new address[](1);\r\n        initialOwners[0] = msg.sender;\r\n        \r\n        lands[landCounter] = Land({\r\n            id: landCounter,\r\n            location: _location,\r\n            area: _area,\r\n            owners: initialOwners,\r\n            isRegistered: true,\r\n            valuation: 0,\r\n            isForSale: false,\r\n            price: 0,\r\n            status: \"Registered\",\r\n            documents: new string[](0),\r\n            isVerified: false,\r\n            verifiedBy: address(0),\r\n            verificationDate: 0\r\n        });\r\n\r\n        landHistory[landCounter] = OwnershipHistory({\r\n            previousOwners: initialOwners,\r\n            transferDates: new uint256[](1)\r\n        });\r\n        landHistory[landCounter].transferDates[0] = block.timestamp;\r\n\r\n        ownerToLands[msg.sender].push(landCounter);\r\n        emit LandRegistered(landCounter, msg.sender);\r\n    }\r\n\r\n    function transferLand(uint256 _landId, address _to) external onlyOwner(_landId) {\r\n        Land storage land = lands[_landId];\r\n        require(land.isRegistered, \"Land not registered\");\r\n        \r\n        // Update ownership\r\n        address[] storage currentOwners = land.owners;\r\n        for(uint i = 0; i < currentOwners.length; i++) {\r\n            if(currentOwners[i] == msg.sender) {\r\n                currentOwners[i] = _to;\r\n                break;\r\n            }\r\n        }\r\n\r\n        // Update history\r\n        landHistory[_landId].previousOwners.push(_to);\r\n        landHistory[_landId].transferDates.push(block.timestamp);\r\n\r\n        // Update owner mapping\r\n        ownerToLands[_to].push(_landId);\r\n        \r\n        // Remove from old owner's list\r\n        uint256[] storage fromLands = ownerToLands[msg.sender];\r\n        for (uint256 i = 0; i < fromLands.length; i++) {\r\n            if (fromLands[i] == _landId) {\r\n                fromLands[i] = fromLands[fromLands.length - 1];\r\n                fromLands.pop();\r\n                break;\r\n            }\r\n        }\r\n\r\n        emit OwnershipTransferred(_landId, msg.sender, _to);\r\n    }\r\n\r\n    function updateValuation(uint256 _landId, uint256 _newValuation) external onlyOwner(_landId) {\r\n        lands[_landId].valuation = _newValuation;\r\n        emit LandValuationUpdated(_landId, _newValuation);\r\n    }\r\n\r\n    function setForSale(uint256 _landId, uint256 _price) external onlyOwner(_landId) {\r\n        Land storage land = lands[_landId];\r\n        land.isForSale = true;\r\n        land.price = _price;\r\n        land.status = \"For Sale\";\r\n        emit LandStatusChanged(_landId, \"For Sale\");\r\n    }\r\n\r\n    function addDocument(uint256 _landId, string memory _documentHash) external onlyOwner(_landId) {\r\n        lands[_landId].documents.push(_documentHash);\r\n        emit DocumentAdded(_landId, _documentHash);\r\n    }\r\n\r\n    function verifyLand(uint256 _landId) external onlyVerifier {\r\n        Land storage land = lands[_landId];\r\n        require(!land.isVerified, \"Land already verified\");\r\n        land.isVerified = true;\r\n        land.verifiedBy = msg.sender;\r\n        land.verificationDate = block.timestamp;\r\n        emit LandVerified(_landId, msg.sender);\r\n    }\r\n\r\n    function raiseDispute(uint256 _landId, string memory _reason) external {\r\n        require(lands[_landId].isRegistered, \"Land not registered\");\r\n        landDisputes[_landId].push(Dispute({\r\n            landId: _landId,\r\n            complainant: msg.sender,\r\n            reason: _reason,\r\n            isResolved: false,\r\n            resolution: \"\",\r\n            resolvedBy: address(0),\r\n            resolutionDate: 0\r\n        }));\r\n        emit DisputeRaised(_landId, msg.sender);\r\n    }\r\n\r\n    function resolveDispute(uint256 _landId, uint256 _disputeIndex, string memory _resolution) external onlyVerifier {\r\n        require(_disputeIndex < landDisputes[_landId].length, \"Invalid dispute index\");\r\n        Dispute storage dispute = landDisputes[_landId][_disputeIndex];\r\n        require(!dispute.isResolved, \"Dispute already resolved\");\r\n        \r\n        dispute.isResolved = true;\r\n        dispute.resolution = _resolution;\r\n        dispute.resolvedBy = msg.sender;\r\n        dispute.resolutionDate = block.timestamp;\r\n        \r\n        emit DisputeResolved(_landId, msg.sender);\r\n    }\r\n\r\n    function getMyLands() external view returns (uint256[] memory) {\r\n        return ownerToLands[msg.sender];\r\n    }\r\n\r\n    function getLandDetails(uint256 _landId) external view returns (\r\n        uint256 id,\r\n        string memory location,\r\n        uint256 area,\r\n        address[] memory owners,\r\n        bool isRegistered,\r\n        uint256 valuation,\r\n        bool isForSale,\r\n        uint256 price,\r\n        string memory status,\r\n        string[] memory documents,\r\n        bool isVerified,\r\n        address verifiedBy,\r\n        uint256 verificationDate\r\n    ) {\r\n        Land memory land = _getLand(_landId);\r\n        return (\r\n            land.id,\r\n            land.location,\r\n            land.area,\r\n            land.owners,\r\n            land.isRegistered,\r\n            land.valuation,\r\n            land.isForSale,\r\n            land.price,\r\n            land.status,\r\n            land.documents,\r\n            land.isVerified,\r\n            land.verifiedBy,\r\n            land.verificationDate\r\n        );\r\n    }\r\n\r\n    function getLandHistory(uint256 _landId) external view returns (\r\n        address[] memory previousOwners,\r\n        uint256[] memory transferDates\r\n    ) {\r\n        OwnershipHistory storage history = landHistory[_landId];\r\n        return (history.previousOwners, history.transferDates);\r\n    }\r\n\r\n    function getLandDisputes(uint256 _landId) external view returns (Dispute[] memory) {\r\n        return landDisputes[_landId];\r\n    }\r\n\r\n    function removeDocument(uint256 _landId, string memory _documentHash) external onlyOwner(_landId) {\r\n        Land storage land = lands[_landId];\r\n        require(land.isRegistered, \"Land not registered\");\r\n        \r\n        // Find and remove the document\r\n        string[] storage documents = land.documents;\r\n        bool found = false;\r\n        uint256 indexToRemove;\r\n        \r\n        for(uint256 i = 0; i < documents.length; i++) {\r\n            if(keccak256(bytes(documents[i])) == keccak256(bytes(_documentHash))) {\r\n                found = true;\r\n                indexToRemove = i;\r\n                break;\r\n            }\r\n        }\r\n        \r\n        require(found, \"Document not found\");\r\n        \r\n        // Remove the document by shifting elements\r\n        for(uint256 i = indexToRemove; i < documents.length - 1; i++) {\r\n            documents[i] = documents[i + 1];\r\n        }\r\n        documents.pop();\r\n        \r\n        emit DocumentRemoved(_landId, _documentHash);\r\n    }\r\n\r\n    function revertSaleStatus(uint256 _landId) external onlyOwner(_landId) {\r\n        Land storage land = lands[_landId];\r\n        require(land.isRegistered, \"Land not registered\");\r\n        require(land.isForSale, \"Land is not for sale\");\r\n        \r\n        land.isForSale = false;\r\n        land.price = 0;\r\n        land.status = \"Registered\";\r\n        \r\n        emit SaleStatusReverted(_landId);\r\n    }\r\n} ",
  "sourcePath": "C:\\Users\\ankit\\Desktop\\SEM-6\\BC\\Land Registration\\contracts\\LandRegistry.sol",
  "compiler": {
    "name": "solc",
    "version": "0.8.20+commit.a1b79de6.Emscripten.clang"
  },
  "schemaVersion": "3.4.16",
  "updatedAt": "2025-04-27T04:13:23.092Z",
  "networkType": "ethereum",
  "devdoc": {
    "kind": "dev",
    "methods": {},
    "version": 1
  },
  "userdoc": {
    "kind": "user",
    "methods": {},
    "version": 1
  }
}