{
  "contractName": "LandRegistry",
  "abi": [
    {
      "anonymous": false,
      "inputs": [
        {
          "indexed": true,
          "internalType": "uint256",
          "name": "landId",
          "type": "uint256"
        },
        {
          "indexed": true,
          "internalType": "address",
          "name": "owner",
          "type": "address"
        }
      ],
      "name": "LandRegistered",
      "type": "event"
    },
    {
      "anonymous": false,
      "inputs": [
        {
          "indexed": true,
          "internalType": "uint256",
          "name": "landId",
          "type": "uint256"
        },
        {
          "indexed": true,
          "internalType": "address",
          "name": "from",
          "type": "address"
        },
        {
          "indexed": true,
          "internalType": "address",
          "name": "to",
          "type": "address"
        }
      ],
      "name": "OwnershipTransferred",
      "type": "event"
    },
    {
      "inputs": [],
      "name": "landCounter",
      "outputs": [
        {
          "internalType": "uint256",
          "name": "",
          "type": "uint256"
        }
      ],
      "stateMutability": "view",
      "type": "function",
      "constant": true
    },
    {
      "inputs": [
        {
          "internalType": "uint256",
          "name": "",
          "type": "uint256"
        }
      ],
      "name": "lands",
      "outputs": [
        {
          "internalType": "uint256",
          "name": "id",
          "type": "uint256"
        },
        {
          "internalType": "string",
          "name": "location",
          "type": "string"
        },
        {
          "internalType": "uint256",
          "name": "area",
          "type": "uint256"
        },
        {
          "internalType": "address",
          "name": "owner",
          "type": "address"
        },
        {
          "internalType": "bool",
          "name": "isRegistered",
          "type": "bool"
        }
      ],
      "stateMutability": "view",
      "type": "function",
      "constant": true
    },
    {
      "inputs": [
        {
          "internalType": "address",
          "name": "",
          "type": "address"
        },
        {
          "internalType": "uint256",
          "name": "",
          "type": "uint256"
        }
      ],
      "name": "ownerToLands",
      "outputs": [
        {
          "internalType": "uint256",
          "name": "",
          "type": "uint256"
        }
      ],
      "stateMutability": "view",
      "type": "function",
      "constant": true
    },
    {
      "inputs": [
        {
          "internalType": "string",
          "name": "_location",
          "type": "string"
        },
        {
          "internalType": "uint256",
          "name": "_area",
          "type": "uint256"
        }
      ],
      "name": "registerLand",
      "outputs": [],
      "stateMutability": "nonpayable",
      "type": "function"
    },
    {
      "inputs": [
        {
          "internalType": "uint256",
          "name": "_landId",
          "type": "uint256"
        },
        {
          "internalType": "address",
          "name": "_to",
          "type": "address"
        }
      ],
      "name": "transferLand",
      "outputs": [],
      "stateMutability": "nonpayable",
      "type": "function"
    },
    {
      "inputs": [],
      "name": "getMyLands",
      "outputs": [
        {
          "internalType": "uint256[]",
          "name": "",
          "type": "uint256[]"
        }
      ],
      "stateMutability": "view",
      "type": "function",
      "constant": true
    },
    {
      "inputs": [
        {
          "internalType": "uint256",
          "name": "_landId",
          "type": "uint256"
        }
      ],
      "name": "getLandDetails",
      "outputs": [
        {
          "components": [
            {
              "internalType": "uint256",
              "name": "id",
              "type": "uint256"
            },
            {
              "internalType": "string",
              "name": "location",
              "type": "string"
            },
            {
              "internalType": "uint256",
              "name": "area",
              "type": "uint256"
            },
            {
              "internalType": "address",
              "name": "owner",
              "type": "address"
            },
            {
              "internalType": "bool",
              "name": "isRegistered",
              "type": "bool"
            }
          ],
          "internalType": "struct LandRegistry.Land",
          "name": "",
          "type": "tuple"
        }
      ],
      "stateMutability": "view",
      "type": "function",
      "constant": true
    }
  ],
  "bytecode": "0x608060405234801561000f575f80fd5b506114378061001d5f395ff3fe608060405234801561000f575f80fd5b506004361061007b575f3560e01c8063c798ff7d11610059578063c798ff7d146100eb578063ce924ed914610107578063e261f1e514610123578063fe0cb7dc146101575761007b565b80630695b9c31461007f57806339577db11461009d5780639e29ce18146100cd575b5f80fd5b610087610187565b6040516100949190610a59565b60405180910390f35b6100b760048036038101906100b29190610b0e565b610218565b6040516100c49190610b5b565b60405180910390f35b6100d5610243565b6040516100e29190610b5b565b60405180910390f35b61010560048036038101906101009190610b74565b610248565b005b610121600480360381019061011c9190610cee565b61058f565b005b61013d60048036038101906101389190610d48565b610734565b60405161014e959493929190610e16565b60405180910390f35b610171600480360381019061016c9190610d48565b610818565b60405161017e9190610f47565b60405180910390f35b606060025f3373ffffffffffffffffffffffffffffffffffffffff1673ffffffffffffffffffffffffffffffffffffffff1681526020019081526020015f2080548060200260200160405190810160405280929190818152602001828054801561020e57602002820191905f5260205f20905b8154815260200190600101908083116101fa575b5050505050905090565b6002602052815f5260405f208181548110610231575f80fd5b905f5260205f20015f91509150505481565b5f5481565b813373ffffffffffffffffffffffffffffffffffffffff1660015f8381526020019081526020015f206003015f9054906101000a900473ffffffffffffffffffffffffffffffffffffffff1673ffffffffffffffffffffffffffffffffffffffff16146102ea576040517f08c379a00000000000000000000000000000000000000000000000000000000081526004016102e190610fb1565b60405180910390fd5b60015f8481526020019081526020015f2060030160149054906101000a900460ff1661034b576040517f08c379a000000000000000000000000000000000000000000000000000000000815260040161034290611019565b60405180910390fd5b5f60015f8581526020019081526020015f206003015f9054906101000a900473ffffffffffffffffffffffffffffffffffffffff1690508260015f8681526020019081526020015f206003015f6101000a81548173ffffffffffffffffffffffffffffffffffffffff021916908373ffffffffffffffffffffffffffffffffffffffff16021790555060025f8473ffffffffffffffffffffffffffffffffffffffff1673ffffffffffffffffffffffffffffffffffffffff1681526020019081526020015f2084908060018154018082558091505060019003905f5260205f20015f90919091909150555f60025f8373ffffffffffffffffffffffffffffffffffffffff1673ffffffffffffffffffffffffffffffffffffffff1681526020019081526020015f2090505f5b818054905081101561052c578582828154811061049757610496611037565b5b905f5260205f200154036105195781600183805490506104b79190611091565b815481106104c8576104c7611037565b5b905f5260205f2001548282815481106104e4576104e3611037565b5b905f5260205f20018190555081805480610501576105006110c4565b5b600190038181905f5260205f20015f9055905561052c565b8080610524906110f1565b915050610477565b508373ffffffffffffffffffffffffffffffffffffffff168273ffffffffffffffffffffffffffffffffffffffff16867f16b85f49bf01212961345d3016c9a531894accf62eb7680f2045d79185cc0ec060405160405180910390a45050505050565b5f808154809291906105a0906110f1565b91905055506040518060a001604052805f5481526020018381526020018281526020013373ffffffffffffffffffffffffffffffffffffffff1681526020016001151581525060015f805481526020019081526020015f205f820151815f015560208201518160010190816106159190611332565b50604082015181600201556060820151816003015f6101000a81548173ffffffffffffffffffffffffffffffffffffffff021916908373ffffffffffffffffffffffffffffffffffffffff16021790555060808201518160030160146101000a81548160ff02191690831515021790555090505060025f3373ffffffffffffffffffffffffffffffffffffffff1673ffffffffffffffffffffffffffffffffffffffff1681526020019081526020015f205f54908060018154018082558091505060019003905f5260205f20015f90919091909150553373ffffffffffffffffffffffffffffffffffffffff165f547fcb4990052f95f6057496d19524f6c3163f50af9f33f2c15b092928e03414323e60405160405180910390a35050565b6001602052805f5260405f205f91509050805f01549080600101805461075990611165565b80601f016020809104026020016040519081016040528092919081815260200182805461078590611165565b80156107d05780601f106107a7576101008083540402835291602001916107d0565b820191905f5260205f20905b8154815290600101906020018083116107b357829003601f168201915b505050505090806002015490806003015f9054906101000a900473ffffffffffffffffffffffffffffffffffffffff16908060030160149054906101000a900460ff16905085565b610820610956565b60015f8381526020019081526020015f206040518060a00160405290815f820154815260200160018201805461085590611165565b80601f016020809104026020016040519081016040528092919081815260200182805461088190611165565b80156108cc5780601f106108a3576101008083540402835291602001916108cc565b820191905f5260205f20905b8154815290600101906020018083116108af57829003601f168201915b5050505050815260200160028201548152602001600382015f9054906101000a900473ffffffffffffffffffffffffffffffffffffffff1673ffffffffffffffffffffffffffffffffffffffff1673ffffffffffffffffffffffffffffffffffffffff1681526020016003820160149054906101000a900460ff1615151515815250509050919050565b6040518060a001604052805f8152602001606081526020015f81526020015f73ffffffffffffffffffffffffffffffffffffffff1681526020015f151581525090565b5f81519050919050565b5f82825260208201905092915050565b5f819050602082019050919050565b5f819050919050565b6109d4816109c2565b82525050565b5f6109e583836109cb565b60208301905092915050565b5f602082019050919050565b5f610a0782610999565b610a1181856109a3565b9350610a1c836109b3565b805f5b83811015610a4c578151610a3388826109da565b9750610a3e836109f1565b925050600181019050610a1f565b5085935050505092915050565b5f6020820190508181035f830152610a7181846109fd565b905092915050565b5f604051905090565b5f80fd5b5f80fd5b5f73ffffffffffffffffffffffffffffffffffffffff82169050919050565b5f610ab382610a8a565b9050919050565b610ac381610aa9565b8114610acd575f80fd5b50565b5f81359050610ade81610aba565b92915050565b610aed816109c2565b8114610af7575f80fd5b50565b5f81359050610b0881610ae4565b92915050565b5f8060408385031215610b2457610b23610a82565b5b5f610b3185828601610ad0565b9250506020610b4285828601610afa565b9150509250929050565b610b55816109c2565b82525050565b5f602082019050610b6e5f830184610b4c565b92915050565b5f8060408385031215610b8a57610b89610a82565b5b5f610b9785828601610afa565b9250506020610ba885828601610ad0565b9150509250929050565b5f80fd5b5f80fd5b5f601f19601f8301169050919050565b7f4e487b71000000000000000000000000000000000000000000000000000000005f52604160045260245ffd5b610c0082610bba565b810181811067ffffffffffffffff82111715610c1f57610c1e610bca565b5b80604052505050565b5f610c31610a79565b9050610c3d8282610bf7565b919050565b5f67ffffffffffffffff821115610c5c57610c5b610bca565b5b610c6582610bba565b9050602081019050919050565b828183375f83830152505050565b5f610c92610c8d84610c42565b610c28565b905082815260208101848484011115610cae57610cad610bb6565b5b610cb9848285610c72565b509392505050565b5f82601f830112610cd557610cd4610bb2565b5b8135610ce5848260208601610c80565b91505092915050565b5f8060408385031215610d0457610d03610a82565b5b5f83013567ffffffffffffffff811115610d2157610d20610a86565b5b610d2d85828601610cc1565b9250506020610d3e85828601610afa565b9150509250929050565b5f60208284031215610d5d57610d5c610a82565b5b5f610d6a84828501610afa565b91505092915050565b5f81519050919050565b5f82825260208201905092915050565b5f5b83811015610daa578082015181840152602081019050610d8f565b5f8484015250505050565b5f610dbf82610d73565b610dc98185610d7d565b9350610dd9818560208601610d8d565b610de281610bba565b840191505092915050565b610df681610aa9565b82525050565b5f8115159050919050565b610e1081610dfc565b82525050565b5f60a082019050610e295f830188610b4c565b8181036020830152610e3b8187610db5565b9050610e4a6040830186610b4c565b610e576060830185610ded565b610e646080830184610e07565b9695505050505050565b5f82825260208201905092915050565b5f610e8882610d73565b610e928185610e6e565b9350610ea2818560208601610d8d565b610eab81610bba565b840191505092915050565b610ebf81610aa9565b82525050565b610ece81610dfc565b82525050565b5f60a083015f830151610ee95f8601826109cb565b5060208301518482036020860152610f018282610e7e565b9150506040830151610f1660408601826109cb565b506060830151610f296060860182610eb6565b506080830151610f3c6080860182610ec5565b508091505092915050565b5f6020820190508181035f830152610f5f8184610ed4565b905092915050565b7f4e6f74206c616e64206f776e65720000000000000000000000000000000000005f82015250565b5f610f9b600e83610d7d565b9150610fa682610f67565b602082019050919050565b5f6020820190508181035f830152610fc881610f8f565b9050919050565b7f4c616e64206e6f742072656769737465726564000000000000000000000000005f82015250565b5f611003601383610d7d565b915061100e82610fcf565b602082019050919050565b5f6020820190508181035f83015261103081610ff7565b9050919050565b7f4e487b71000000000000000000000000000000000000000000000000000000005f52603260045260245ffd5b7f4e487b71000000000000000000000000000000000000000000000000000000005f52601160045260245ffd5b5f61109b826109c2565b91506110a6836109c2565b92508282039050818111156110be576110bd611064565b5b92915050565b7f4e487b71000000000000000000000000000000000000000000000000000000005f52603160045260245ffd5b5f6110fb826109c2565b91507fffffffffffffffffffffffffffffffffffffffffffffffffffffffffffffffff820361112d5761112c611064565b5b600182019050919050565b7f4e487b71000000000000000000000000000000000000000000000000000000005f52602260045260245ffd5b5f600282049050600182168061117c57607f821691505b60208210810361118f5761118e611138565b5b50919050565b5f819050815f5260205f209050919050565b5f6020601f8301049050919050565b5f82821b905092915050565b5f600883026111f17fffffffffffffffffffffffffffffffffffffffffffffffffffffffffffffffff826111b6565b6111fb86836111b6565b95508019841693508086168417925050509392505050565b5f819050919050565b5f61123661123161122c846109c2565b611213565b6109c2565b9050919050565b5f819050919050565b61124f8361121c565b61126361125b8261123d565b8484546111c2565b825550505050565b5f90565b61127761126b565b611282818484611246565b505050565b5b818110156112a55761129a5f8261126f565b600181019050611288565b5050565b601f8211156112ea576112bb81611195565b6112c4846111a7565b810160208510156112d3578190505b6112e76112df856111a7565b830182611287565b50505b505050565b5f82821c905092915050565b5f61130a5f19846008026112ef565b1980831691505092915050565b5f61132283836112fb565b9150826002028217905092915050565b61133b82610d73565b67ffffffffffffffff81111561135457611353610bca565b5b61135e8254611165565b6113698282856112a9565b5f60209050601f83116001811461139a575f8415611388578287015190505b6113928582611317565b8655506113f9565b601f1984166113a886611195565b5f5b828110156113cf578489015182556001820191506020850194506020810190506113aa565b868310156113ec57848901516113e8601f8916826112fb565b8355505b6001600288020188555050505b50505050505056fea26469706673582212204d2146c90c124bd4f8aad3d0ce1d4a5f39a10700a4367f699f0bdb9cde979f6864736f6c63430008150033",
  "immutableReferences": {},
  "source": "// SPDX-License-Identifier: MIT\r\npragma solidity ^0.8.20;\r\n\r\ncontract LandRegistry {\r\n    struct Land {\r\n        uint256 id;\r\n        string location;\r\n        uint256 area; // in square feet\r\n        address owner;\r\n        bool isRegistered;\r\n    }\r\n\r\n    uint256 public landCounter;\r\n    mapping(uint256 => Land) public lands;\r\n    mapping(address => uint256[]) public ownerToLands;\r\n\r\n    event LandRegistered(uint256 indexed landId, address indexed owner);\r\n    event OwnershipTransferred(uint256 indexed landId, address indexed from, address indexed to);\r\n\r\n    modifier onlyOwner(uint256 _landId) {\r\n        require(lands[_landId].owner == msg.sender, \"Not land owner\");\r\n        _;\r\n    }\r\n\r\n    function registerLand(string memory _location, uint256 _area) external {\r\n        landCounter++;\r\n        lands[landCounter] = Land(landCounter, _location, _area, msg.sender, true);\r\n        ownerToLands[msg.sender].push(landCounter);\r\n        emit LandRegistered(landCounter, msg.sender);\r\n    }\r\n\r\n    function transferLand(uint256 _landId, address _to) external onlyOwner(_landId) {\r\n        require(lands[_landId].isRegistered, \"Land not registered\");\r\n        address previousOwner = lands[_landId].owner;\r\n\r\n        // Update owner mapping\r\n        lands[_landId].owner = _to;\r\n        ownerToLands[_to].push(_landId);\r\n\r\n        // Remove from old owner's list (simplified, may need optimization)\r\n        uint256[] storage fromLands = ownerToLands[previousOwner];\r\n        for (uint256 i = 0; i < fromLands.length; i++) {\r\n            if (fromLands[i] == _landId) {\r\n                fromLands[i] = fromLands[fromLands.length - 1];\r\n                fromLands.pop();\r\n                break;\r\n            }\r\n        }\r\n\r\n        emit OwnershipTransferred(_landId, previousOwner, _to);\r\n    }\r\n\r\n    function getMyLands() external view returns (uint256[] memory) {\r\n        return ownerToLands[msg.sender];\r\n    }\r\n\r\n    function getLandDetails(uint256 _landId) external view returns (Land memory) {\r\n        return lands[_landId];\r\n    }\r\n}",
  "sourcePath": "C:\\Users\\ankit\\Desktop\\SEM-6\\BC\\Land Registration\\contracts\\landRegistry.sol",
  "compiler": {
    "name": "solc",
    "version": "0.8.21+commit.d9974bed.Emscripten.clang"
  },
  "schemaVersion": "3.4.16",
  "updatedAt": "2025-04-23T11:52:10.340Z",
  "networkType": "ethereum",
  "devdoc": {
    "kind": "dev",
    "methods": {},
    "version": 1
  },
  "userdoc": {
    "kind": "user",
    "methods": {},
    "version": 1
  }
}