{
  "contractName": "PropertyRegistry",
  "abi": [
    {
      "inputs": [],
      "stateMutability": "nonpayable",
      "type": "constructor"
    },
    {
      "anonymous": false,
      "inputs": [
        {
          "indexed": true,
          "internalType": "uint256",
          "name": "propertyId",
          "type": "uint256"
        },
        {
          "indexed": true,
          "internalType": "address",
          "name": "complainant",
          "type": "address"
        }
      ],
      "name": "DisputeRaised",
      "type": "event"
    },
    {
      "anonymous": false,
      "inputs": [
        {
          "indexed": true,
          "internalType": "uint256",
          "name": "propertyId",
          "type": "uint256"
        },
        {
          "indexed": true,
          "internalType": "address",
          "name": "resolver",
          "type": "address"
        }
      ],
      "name": "DisputeResolved",
      "type": "event"
    },
    {
      "anonymous": false,
      "inputs": [
        {
          "indexed": true,
          "internalType": "uint256",
          "name": "propertyId",
          "type": "uint256"
        },
        {
          "indexed": false,
          "internalType": "string",
          "name": "documentHash",
          "type": "string"
        }
      ],
      "name": "DocumentAdded",
      "type": "event"
    },
    {
      "anonymous": false,
      "inputs": [
        {
          "indexed": true,
          "internalType": "uint256",
          "name": "propertyId",
          "type": "uint256"
        },
        {
          "indexed": false,
          "internalType": "string",
          "name": "documentHash",
          "type": "string"
        }
      ],
      "name": "DocumentRemoved",
      "type": "event"
    },
    {
      "anonymous": false,
      "inputs": [
        {
          "indexed": true,
          "internalType": "uint256",
          "name": "propertyId",
          "type": "uint256"
        },
        {
          "indexed": true,
          "internalType": "address",
          "name": "from",
          "type": "address"
        },
        {
          "indexed": true,
          "internalType": "address",
          "name": "to",
          "type": "address"
        },
        {
          "indexed": false,
          "internalType": "uint256",
          "name": "price",
          "type": "uint256"
        }
      ],
      "name": "OwnershipTransferred",
      "type": "event"
    },
    {
      "anonymous": false,
      "inputs": [
        {
          "indexed": true,
          "internalType": "uint256",
          "name": "propertyId",
          "type": "uint256"
        },
        {
          "indexed": true,
          "internalType": "address",
          "name": "owner",
          "type": "address"
        },
        {
          "indexed": false,
          "internalType": "string",
          "name": "propertyType",
          "type": "string"
        },
        {
          "indexed": false,
          "internalType": "string",
          "name": "propertyAddress",
          "type": "string"
        }
      ],
      "name": "PropertyRegistered",
      "type": "event"
    },
    {
      "anonymous": false,
      "inputs": [
        {
          "indexed": true,
          "internalType": "uint256",
          "name": "propertyId",
          "type": "uint256"
        },
        {
          "indexed": false,
          "internalType": "uint256",
          "name": "price",
          "type": "uint256"
        }
      ],
      "name": "PropertySetForSale",
      "type": "event"
    },
    {
      "anonymous": false,
      "inputs": [
        {
          "indexed": true,
          "internalType": "uint256",
          "name": "propertyId",
          "type": "uint256"
        },
        {
          "indexed": false,
          "internalType": "string",
          "name": "newStatus",
          "type": "string"
        }
      ],
      "name": "PropertyStatusChanged",
      "type": "event"
    },
    {
      "anonymous": false,
      "inputs": [
        {
          "indexed": true,
          "internalType": "uint256",
          "name": "propertyId",
          "type": "uint256"
        },
        {
          "indexed": false,
          "internalType": "uint256",
          "name": "newValuation",
          "type": "uint256"
        }
      ],
      "name": "PropertyValuationUpdated",
      "type": "event"
    },
    {
      "anonymous": false,
      "inputs": [
        {
          "indexed": true,
          "internalType": "uint256",
          "name": "propertyId",
          "type": "uint256"
        },
        {
          "indexed": true,
          "internalType": "address",
          "name": "verifier",
          "type": "address"
        }
      ],
      "name": "PropertyVerified",
      "type": "event"
    },
    {
      "anonymous": false,
      "inputs": [
        {
          "indexed": true,
          "internalType": "uint256",
          "name": "propertyId",
          "type": "uint256"
        }
      ],
      "name": "SaleStatusReverted",
      "type": "event"
    },
    {
      "inputs": [
        {
          "internalType": "address",
          "name": "_verifier",
          "type": "address"
        }
      ],
      "name": "addVerifier",
      "outputs": [],
      "stateMutability": "nonpayable",
      "type": "function"
    },
    {
      "inputs": [
        {
          "internalType": "address",
          "name": "",
          "type": "address"
        },
        {
          "internalType": "uint256",
          "name": "",
          "type": "uint256"
        }
      ],
      "name": "ownerToProperties",
      "outputs": [
        {
          "internalType": "uint256",
          "name": "",
          "type": "uint256"
        }
      ],
      "stateMutability": "view",
      "type": "function",
      "constant": true
    },
    {
      "inputs": [],
      "name": "propertyCounter",
      "outputs": [
        {
          "internalType": "uint256",
          "name": "",
          "type": "uint256"
        }
      ],
      "stateMutability": "view",
      "type": "function",
      "constant": true
    },
    {
      "inputs": [
        {
          "internalType": "address",
          "name": "_verifier",
          "type": "address"
        }
      ],
      "name": "removeVerifier",
      "outputs": [],
      "stateMutability": "nonpayable",
      "type": "function"
    },
    {
      "inputs": [
        {
          "internalType": "address",
          "name": "",
          "type": "address"
        }
      ],
      "name": "verifiers",
      "outputs": [
        {
          "internalType": "bool",
          "name": "",
          "type": "bool"
        }
      ],
      "stateMutability": "view",
      "type": "function",
      "constant": true
    },
    {
      "inputs": [
        {
          "internalType": "string",
          "name": "_propertyType",
          "type": "string"
        },
        {
          "internalType": "string",
          "name": "_propertyAddress",
          "type": "string"
        },
        {
          "internalType": "uint256",
          "name": "_size",
          "type": "uint256"
        },
        {
          "internalType": "uint256",
          "name": "_bedrooms",
          "type": "uint256"
        },
        {
          "internalType": "uint256",
          "name": "_bathrooms",
          "type": "uint256"
        },
        {
          "internalType": "uint256",
          "name": "_constructionYear",
          "type": "uint256"
        },
        {
          "internalType": "string",
          "name": "_amenities",
          "type": "string"
        }
      ],
      "name": "registerProperty",
      "outputs": [],
      "stateMutability": "nonpayable",
      "type": "function"
    },
    {
      "inputs": [
        {
          "internalType": "uint256",
          "name": "_propertyId",
          "type": "uint256"
        },
        {
          "internalType": "address",
          "name": "_to",
          "type": "address"
        }
      ],
      "name": "transferProperty",
      "outputs": [],
      "stateMutability": "nonpayable",
      "type": "function"
    },
    {
      "inputs": [
        {
          "internalType": "uint256",
          "name": "_propertyId",
          "type": "uint256"
        },
        {
          "internalType": "uint256",
          "name": "_newValuation",
          "type": "uint256"
        }
      ],
      "name": "updateValuation",
      "outputs": [],
      "stateMutability": "nonpayable",
      "type": "function"
    },
    {
      "inputs": [
        {
          "internalType": "uint256",
          "name": "_propertyId",
          "type": "uint256"
        },
        {
          "internalType": "uint256",
          "name": "_price",
          "type": "uint256"
        }
      ],
      "name": "setForSale",
      "outputs": [],
      "stateMutability": "nonpayable",
      "type": "function"
    },
    {
      "inputs": [
        {
          "internalType": "uint256",
          "name": "_propertyId",
          "type": "uint256"
        },
        {
          "internalType": "string",
          "name": "_documentHash",
          "type": "string"
        }
      ],
      "name": "addDocument",
      "outputs": [],
      "stateMutability": "nonpayable",
      "type": "function"
    },
    {
      "inputs": [
        {
          "internalType": "uint256",
          "name": "_propertyId",
          "type": "uint256"
        }
      ],
      "name": "verifyProperty",
      "outputs": [],
      "stateMutability": "nonpayable",
      "type": "function"
    },
    {
      "inputs": [
        {
          "internalType": "uint256",
          "name": "_propertyId",
          "type": "uint256"
        },
        {
          "internalType": "string",
          "name": "_reason",
          "type": "string"
        }
      ],
      "name": "raiseDispute",
      "outputs": [],
      "stateMutability": "nonpayable",
      "type": "function"
    },
    {
      "inputs": [
        {
          "internalType": "uint256",
          "name": "_propertyId",
          "type": "uint256"
        },
        {
          "internalType": "uint256",
          "name": "_disputeIndex",
          "type": "uint256"
        },
        {
          "internalType": "string",
          "name": "_resolution",
          "type": "string"
        }
      ],
      "name": "resolveDispute",
      "outputs": [],
      "stateMutability": "nonpayable",
      "type": "function"
    },
    {
      "inputs": [],
      "name": "getMyProperties",
      "outputs": [
        {
          "internalType": "uint256[]",
          "name": "",
          "type": "uint256[]"
        }
      ],
      "stateMutability": "view",
      "type": "function",
      "constant": true
    },
    {
      "inputs": [
        {
          "internalType": "uint256",
          "name": "_propertyId",
          "type": "uint256"
        }
      ],
      "name": "getPropertyDetails",
      "outputs": [
        {
          "internalType": "uint256",
          "name": "propertyId",
          "type": "uint256"
        },
        {
          "internalType": "address",
          "name": "owner",
          "type": "address"
        },
        {
          "internalType": "string",
          "name": "propertyType",
          "type": "string"
        },
        {
          "internalType": "string",
          "name": "propertyAddress",
          "type": "string"
        },
        {
          "internalType": "uint256",
          "name": "size",
          "type": "uint256"
        },
        {
          "internalType": "uint256",
          "name": "bedrooms",
          "type": "uint256"
        },
        {
          "internalType": "uint256",
          "name": "bathrooms",
          "type": "uint256"
        },
        {
          "internalType": "uint256",
          "name": "constructionYear",
          "type": "uint256"
        },
        {
          "internalType": "string",
          "name": "amenities",
          "type": "string"
        },
        {
          "internalType": "uint256",
          "name": "valuation",
          "type": "uint256"
        },
        {
          "internalType": "bool",
          "name": "isForSale",
          "type": "bool"
        },
        {
          "internalType": "uint256",
          "name": "salePrice",
          "type": "uint256"
        },
        {
          "internalType": "string",
          "name": "status",
          "type": "string"
        },
        {
          "internalType": "bool",
          "name": "isVerified",
          "type": "bool"
        },
        {
          "internalType": "address",
          "name": "verifiedBy",
          "type": "address"
        },
        {
          "internalType": "uint256",
          "name": "verificationDate",
          "type": "uint256"
        },
        {
          "internalType": "string[]",
          "name": "documents",
          "type": "string[]"
        }
      ],
      "stateMutability": "view",
      "type": "function",
      "constant": true
    },
    {
      "inputs": [
        {
          "internalType": "uint256",
          "name": "_propertyId",
          "type": "uint256"
        }
      ],
      "name": "getPropertyHistory",
      "outputs": [
        {
          "internalType": "address[]",
          "name": "previousOwners",
          "type": "address[]"
        },
        {
          "internalType": "uint256[]",
          "name": "transferDates",
          "type": "uint256[]"
        },
        {
          "internalType": "uint256[]",
          "name": "prices",
          "type": "uint256[]"
        },
        {
          "internalType": "string[]",
          "name": "transferReasons",
          "type": "string[]"
        }
      ],
      "stateMutability": "view",
      "type": "function",
      "constant": true
    },
    {
      "inputs": [
        {
          "internalType": "uint256",
          "name": "_propertyId",
          "type": "uint256"
        }
      ],
      "name": "getPropertyDisputes",
      "outputs": [
        {
          "components": [
            {
              "internalType": "uint256",
              "name": "propertyId",
              "type": "uint256"
            },
            {
              "internalType": "address",
              "name": "complainant",
              "type": "address"
            },
            {
              "internalType": "string",
              "name": "reason",
              "type": "string"
            },
            {
              "internalType": "bool",
              "name": "isResolved",
              "type": "bool"
            },
            {
              "internalType": "string",
              "name": "resolution",
              "type": "string"
            },
            {
              "internalType": "address",
              "name": "resolvedBy",
              "type": "address"
            },
            {
              "internalType": "uint256",
              "name": "resolutionDate",
              "type": "uint256"
            }
          ],
          "internalType": "struct Dispute[]",
          "name": "",
          "type": "tuple[]"
        }
      ],
      "stateMutability": "view",
      "type": "function",
      "constant": true
    },
    {
      "inputs": [
        {
          "internalType": "uint256",
          "name": "_propertyId",
          "type": "uint256"
        },
        {
          "internalType": "string",
          "name": "_documentHash",
          "type": "string"
        }
      ],
      "name": "removeDocument",
      "outputs": [],
      "stateMutability": "nonpayable",
      "type": "function"
    },
    {
      "inputs": [
        {
          "internalType": "uint256",
          "name": "_propertyId",
          "type": "uint256"
        }
      ],
      "name": "revertSaleStatus",
      "outputs": [],
      "stateMutability": "nonpayable",
      "type": "function"
    },
    {
      "inputs": [
        {
          "internalType": "address",
          "name": "_owner",
          "type": "address"
        }
      ],
      "name": "getPropertiesByOwner",
      "outputs": [
        {
          "internalType": "uint256[]",
          "name": "",
          "type": "uint256[]"
        }
      ],
      "stateMutability": "view",
      "type": "function",
      "constant": true
    }
  ],
  "bytecode": "0x6080806040523461002c57335f525f60205260405f20600160ff198254161790556124a390816100318239f35b5f80fdfe6101006040526004361015610012575f80fd5b5f3560e01c8063126dbe43146119f357806317fcfe22146119175780632aa0a1ca146117f0578063397f7952146117c95780634138c312146111035780634212a8ae14610fd95780635aef573c14610e605780636c82448714610e245780636dc0fc6b14610db657806372b3f92114610ba15780638bfb1d0714610acb5780639000b3d614610a785780639fcb274814610a2c578063c49cd1891461086e578063ca2dfd0a146107da578063d090e47e146107bd578063de1975ac1461060c578063e797888e146105b5578063fd585248146104995763ff356237146100f6575f80fd5b3461049557604036600319011261049557602460043581356001600160a01b038181169182900361049557811561045f57825f5260019060209180835260405f20908082018054908482169182330361041d5787906001600160601b0360a01b16179055865f5260039081865260405f2094855491600160401b928381101561040a5780866101889201895588611e76565b9092835491861b92831b921b19161790556101a5428487016120e1565b81600b8501956101b98754600283016120e1565b01908154908110156103f7576101d3918482018155611e76565b6103e557975f896101e98a9b9a98999a54611f1f565b601f81116103c7575b5055875f52600587526102088660405f206120e1565b335f526005875260405f2090835f905b6102c8575b505050505090600c82600a7f06f354ec7b9d2ca4e029f73ccb9119943a48c3295704dd66ca8beda0c7bae33f940160ff1981541690555f83550161026a6102648254611f1f565b82611f6d565b601469149959da5cdd195c995960b21b01905554604051908152339390a45f8051602061244e833981519152604051806102c38160609060208152600a602082015269149959da5cdd195c995960b21b60408201520190565b0390a2005b8254808210156103c157886102dd8386611e76565b905490871b1c146102f857506102f290611efa565b84610218565b9395969750909193505f19928381019081116103ae579061032c61031f6103449387611e76565b905490881b1c9186611e76565b90919082549060031b91821b915f19901b1916179055565b825490811561039b575092600c92827f06f354ec7b9d2ca4e029f73ccb9119943a48c3295704dd66ca8beda0c7bae33f96938b989601926103858484611e76565b81939154921b1b191690555591925f808061021d565b634e487b7160e01b5f9081526031600452fd5b82634e487b7160e01b5f5260116004525ffd5b5061021d565b8183528983206103df91601f0160051c810190611f57565b5f6101f2565b88634e487b7160e01b5f525f6004525ffd5b89634e487b7160e01b5f5260416004525ffd5b8b634e487b7160e01b5f5260416004525ffd5b60648a886040519162461bcd60e51b83528160048401528201527f4f6e6c79206f776e65722063616e207472616e736665722070726f70657274796044820152fd5b60405162461bcd60e51b815260206004820152600f818601526e496e76616c6964206164647265737360881b6044820152606490fd5b5f80fd5b3461049557602080600319360112610495576004356104bc6002548211156121d1565b5f526003815260405f2060405190819083815493848152018093825f52855f20905f5b878282106105985750505050826104f7910383611db8565b600192610505848301612236565b9461051e600361051760028601612236565b9401612313565b93604051956080870191608088525180925260a0870193915f5b81811061057c5788806105788a61056a8b8f8c61055c918d88830390890152611d33565b908582036040870152611d33565b908382036060850152611cc2565b0390f35b83516001600160a01b0316865294840194928401928201610538565b83546001600160a01b0316855290930192600192830192016104df565b34610495576040366003190112610495576105ce611e60565b6001600160a01b03165f90815260056020526040902080546024359190821015610495576020916105fe91611e76565b90546040519160031b1c8152f35b3461049557602080600319360112610495576004359060029161063283548211156121d1565b5f526004815260405f20805461064781611f08565b936106556040519586611db8565b8185525f9283528383208486019391845b84841061072757604080518881528951818a018190525f92600582901b83018101918a918c9085015b82871061069c5785850386f35b909192938280600192603f1989820301855287519081518152848060a01b0391828482015116848301526107016106e2604083015160e0604086015260e0850190611c84565b6060808401511515908501526080808401519085830390860152611c84565b9260a09081830151169083015260c080910151910152960192019601959291909261068f565b60078760019260409a999a5161073c81611d82565b86548152848060a01b038086890154168483015260405161076a81610763818b8d01612282565b0382611db8565b604083015260ff60038901541615156060830152604051610792816107638160048d01612282565b608083015260058801541660a0820152600687015460c0820152815201930193019291969596610666565b34610495575f366003190112610495576020600254604051908152f35b34610495576020366003190112610495576107f3611e60565b335f525f60205261080a60ff60405f205416611e9f565b6001600160a01b0316338114610830575f525f60205260405f2060ff1981541690555f80f35b60405162461bcd60e51b815260206004820152601660248201527521b0b73737ba103932b6b7bb32903cb7bab939b2b63360511b6044820152606490fd5b34610495576060366003190112610495576004356024356044356001600160401b038111610495576108a4903690600401611dd9565b335f526020915f83526108bd60ff60405f205416611e9f565b6108cb6002548511156121d1565b835f526004835260405f20548110156109ef578151156109aa576108f990845f526004845260405f2061221d565b5091600383019081549060ff8216610966575060ff191660011790556109229060048301611fd8565b60058101336001600160601b0360a01b82541617905560064291015533907ff77ceb5e091d2da041bc760667f9d5fe7a756949eaf29250ad0e60ca6f4c27d95f80a3005b6064906040519062461bcd60e51b82526004820152601860248201527f4469737075746520616c7265616479207265736f6c76656400000000000000006044820152fd5b60405162461bcd60e51b815260048101849052601a60248201527f5265736f6c7574696f6e2063616e6e6f7420626520656d7074790000000000006044820152606490fd5b60405162461bcd60e51b8152600481018490526015602482015274092dcecc2d8d2c840c8d2e6e0eae8ca40d2dcc8caf605b1b6044820152606490fd5b34610495576020366003190112610495576001600160a01b03610a4d611e60565b165f526005602052610578610a6460405f20612236565b604051918291602083526020830190611d33565b3461049557602036600319011261049557610a91611e60565b335f525f602052610aa860ff60405f205416611e9f565b6001600160a01b03165f908152602081905260409020805460ff19166001179055005b3461049557610ad936611e2e565b815f526001602052610afb60018060a01b03600160405f200154163314612125565b610b0781511515612185565b815f526001602052600f60405f20018054600160401b811015610b8d57610b3391600182018155611e76565b610b7a5781610b667fa27affd73e620d6edea4d8c6cb3e758783e547c2332422a234998f2cdab6e6fd936102c393611fd8565b604051918291602083526020830190611c84565b634e487b7160e01b5f525f60045260245ffd5b634e487b7160e01b5f52604160045260245ffd5b3461049557610baf36611e2e565b815f526001906020828152610bd360018060a01b038460405f200154163314612125565b610bdf82511515612185565b835f52828152600f60405f20015f805f835490858701905b828110610d6e575b50505015610d3457845b610cc8575b5080548015610cb4575f190190610c258282611e76565b959095610b7a5785610c587f8058f5553f7dc798c5740b6eb3e49825c7f217e8d66b05b027b14d7185c442a69754611f1f565b80610c76575b505050556102c3604051928284938452830190611c84565b5f92601f8211600114610c8f575050555b868080610c5e565b91610cad849293828452601f898520950160051c8501908501611f57565b5555610c87565b634e487b7160e01b5f52603160045260245ffd5b81545f198101908111610d1b57811015610d2f57848101808211610d1b57610cf09083611e76565b50610cfb8284611e76565b929092610b7a57610d10610d15928894612375565b611efa565b90610c09565b634e487b7160e01b5f52601160045260245ffd5b610c0e565b60405162461bcd60e51b8152600481018490526012602482015271111bd8dd5b595b9d081b9bdd08199bdd5b9960721b6044820152606490fd5b610763610d8b610d7e8389611e76565b5060405192838092612282565b8781519101208851832014610da857610da390611efa565b610bf7565b935050505084878080610bff565b346104955760207ffe4d677545c206046b8be8201e70f0acf01f26cfcd9a9ef2af480e1c00644680610de736611d1d565b815f9492945260018252610e0b60018060a01b03600160405f200154163314612125565b835f526001825280600960405f200155604051908152a2005b34610495576020366003190112610495576001600160a01b03610e45611e60565b165f525f602052602060ff60405f2054166040519015158152f35b3461049557610e6e36611e2e565b610e7c6002548311156121d1565b805115610f9b57815f52600460205260405f2060405190610e9c82611d82565b83825260208201923384526040830190815260608301905f825260405194610ec386611d9d565b5f86526080850195865260a08501925f845260c08601945f86528054600160401b811015610b8d57610efa9160018201815561221d565b979097610b7a57610f57610f6192600698518a55610f3f60018b019660018060a01b0380975116976001600160601b0360a01b98898254161790555160028c01611fd8565b51151560038a019060ff801983541691151516179055565b5160048801611fd8565b60058601925116908254161790555191015533907f84a477df8a28a4276ca6dee4458a06c3015f30c477d9c949ede4e13ff8a552b45f80a3005b60405162461bcd60e51b8152602060048201526016602482015275526561736f6e2063616e6e6f7420626520656d70747960501b6044820152606490fd5b34610495576020806003193601126104955760043590335f525f815261100560ff60405f205416611e9f565b815f526001815260405f20600d8101805460ff81166110be576001600160a81b0319163360081b610100600160a81b03161760011790555f8051602061244e83398151915291606091600c9042600e820155016110656102648254611f1f565b60106715995c9a599a595960c21b019055604051906715995c9a599a595960c21b9060089033877f791049df3faadbda0c00ec3e469ce592f100f0d6664511fa7ac1ab33bf0aafda5f80a38084528301526040820152a2005b60405162461bcd60e51b815260048101859052601960248201527f50726f706572747920616c7265616479207665726966696564000000000000006044820152606490fd5b346104955760e0366003190112610495576004356001600160401b03811161049557611133903690600401611dd9565b6024356001600160401b03811161049557611152903690600401611dd9565b9060c4356001600160401b03811161049557611172903690600401611dd9565b8151156117845782511561174057604435156116fb5760a435156116b65761119b600254611efa565b806002556040516111ab81611d9d565b5f8152604051926111bb84611d66565b828452336020850152846040850152856060850152604435608085015260643560a085015260843560c085015260a43560e08501526101008401525f6101208401525f6101408401525f6101608401526040518060408101106001600160401b03604083011117610b8d5760408101604052600a815269149959da5cdd195c995960b21b60208201526101808401525f6101a08401525f6101c08401525f6101e08401526102008301525f52600160205261020060405f20918051835560018060a01b0360208201511660018401906001600160601b0360a01b8254161790556112ac604082015160028501611fd8565b6112bd606082015160038501611fd8565b6080810151600484015560a0810151600584015560c0810151600684015560e081015160078401556112f761010082015160088501611fd8565b61012081015160098401556113226101408201511515600a85019060ff801983541691151516179055565b610160810151600b84015561133f610180820151600c8501611fd8565b61138b600d84016113636101a08401511515829060ff801983541691151516179055565b6101c08301518154610100600160a81b03191660089190911b610100600160a81b0316179055565b6101e0810151600e840155015190815191600160401b8311610b8d57600f82015483600f840155808410611685575b506020600f910191015f5260205f205f915b838310611668578585335f5260056020526113ed60405f20600254906120e1565b6040516113f981611d9d565b5f815260405161140881611d9d565b5f815260405161141781611d9d565b5f81526040519161142783611d9d565b5f8352604051938460808101106001600160401b03608087011117610b8d576080850160405284526020840152604083015260608201526002545f52600360205260405f2081518051906001600160401b038211610b8d57600160401b8211610b8d5760209061149c83855481875586612104565b01825f5260205f205f5b83811061164b575050505060208201518051906001600160401b038211610b8d57600160401b8211610b8d57602060018401916114e884845481865585612104565b01905f5260205f205f5b8381106116375750505050600281016040830151908151916001600160401b038311610b8d57600160401b8311610b8d5760209061153584845481865585612104565b01905f5260205f205f5b838110611623575050505060036060910191015190815191600160401b8311610b8d5781548383558084106115f6575b50602001905f5260205f205f915b8383106115d95785857f31182f6909026c6beb17a5f7d86ce8dfd6c60aeb1d2df4ef2250e326b10a1ae66115c5600254926115d4604051928392604084526040840190611c84565b82810360208401523396611c84565b0390a3005b60016020826115ea83945186611fd8565b0192019201919061157d565b825f528360205f2091820191015b818110611611575061156f565b8061161d600192612099565b01611604565b60019060208451940193818401550161153f565b6001906020845194019381840155016114f2565b82516001600160a01b0316818301556020909201916001016114a6565b600160208261167983945186611fd8565b019201920191906113cc565b600f83015f5260205f20908482015b81830181106116a45750506113ba565b806116b0600192612099565b01611694565b60405162461bcd60e51b815260206004820152601f60248201527f436f6e737472756374696f6e2079656172206d7573742062652076616c6964006044820152606490fd5b60405162461bcd60e51b815260206004820152601b60248201527f53697a65206d7573742062652067726561746572207468616e203000000000006044820152606490fd5b606460405162461bcd60e51b815260206004820152602060248201527f50726f706572747920616464726573732063616e6e6f7420626520656d7074796044820152fd5b60405162461bcd60e51b815260206004820152601d60248201527f50726f706572747920747970652063616e6e6f7420626520656d7074790000006044820152606490fd5b34610495575f36600319011261049557335f526005602052610578610a6460405f20612236565b3461049557602036600319011261049557600435805f52600160205261182660018060a01b03600160405f200154163314612125565b805f52600160205260405f20600a81019081549160ff8316156118d257600c9260ff191690555f600b820155016118606102648254611f1f565b601469149959da5cdd195c995960b21b0190556040515f8051602061244e83398151915290827f046777a973740df13077c5794f3f495feb68daea2e0bef6f205a3db24b18751d5f80a26020808252600a9082015269149959da5cdd195c995960b21b604082015280606081016102c3565b60405162461bcd60e51b815260206004820152601860248201527f50726f7065727479206973206e6f7420666f722073616c6500000000000000006044820152606490fd5b346104955760605f8051602061244e83398151915261193536611d1d565b815f94929452600160205261195a60018060a01b03600160405f200154163314612125565b835f526001602052837f2c09e0eb8da109a743a8c2a6d7de547df8eb65e2df59636321d3fa9bb158a55e6020600c60405f20600a8101600160ff1982541617905585600b82015501936119b66119b08654611f1f565b86611f6d565b601067466f722053616c6560c01b0190945560405193845267466f722053616c6560c01b93a26040519060208252600860208301526040820152a2005b34610495576020366003190112610495576004355f526001602052611b0c600f60405f20611a22610100611d66565b80546101005260018101546001600160a01b031661012052604051611a4e816107638160028601612282565b61014052604051611a66816107638160038601612282565b6101605260048101546101805260058101546101a05260068101546101c05260078101546101e052604051611aa2816107638160088601612282565b61020052600981015461022052600a81015460ff16151561024052600b81015461026052604051611ada8161076381600c8601612282565b61028052600d81015460ff811615156102a05260081c6001600160a01b03166102c052600e8101546102e05201612313565b806080526102006101000152610100518060c05260018060a01b036020610100015116906040610100015160e0526060610100015191611c4a6080610100015160a0610100015160c0610100015160e06101000151611c20610100800151946101206101000151956101406101000151151593610160610100015195610180610100015197611bf36101a0610100015115159e60018060a01b036101c06101000151169d6101e061010001519f6040518060a05252602060a0510152611be261022080604060a051015260a0510160e051611c84565b9060a0516060818403910152611c84565b94608060a051015260a08051015260c060a051015260e060a051015260a051610100818403910152611c84565b9361012060a051015261014060a051015261016060a051015260a051610180818403910152611c84565b926101a060a05101526101c060a05101526101e060a051015260a051610200818303910152611c7e60a05191608051611cc2565b0360a051f35b91908251928382525f5b848110611cae575050825f602080949584010152601f8019910116010190565b602081830181015184830182015201611c8e565b908082519081815260208091019281808460051b8301019501935f915b848310611cef5750505050505090565b9091929394958480611d0d600193601f198682030187528a51611c84565b9801930193019194939290611cdf565b6040906003190112610495576004359060243590565b9081518082526020808093019301915f5b828110611d52575050505090565b835185529381019392810192600101611d44565b61022081019081106001600160401b03821117610b8d57604052565b60e081019081106001600160401b03821117610b8d57604052565b602081019081106001600160401b03821117610b8d57604052565b90601f801991011681019081106001600160401b03821117610b8d57604052565b81601f82011215610495578035906001600160401b038211610b8d5760405192611e0d601f8401601f191660200185611db8565b8284526020838301011161049557815f926020809301838601378301015290565b9060406003198301126104955760043591602435906001600160401b03821161049557611e5d91600401611dd9565b90565b600435906001600160a01b038216820361049557565b8054821015611e8b575f5260205f2001905f90565b634e487b7160e01b5f52603260045260245ffd5b15611ea657565b60405162461bcd60e51b815260206004820152602660248201527f4f6e6c79207665726966696572732063616e20706572666f726d20746869732060448201526530b1ba34b7b760d11b6064820152608490fd5b5f198114610d1b5760010190565b6001600160401b038111610b8d5760051b60200190565b90600182811c92168015611f4d575b6020831014611f3957565b634e487b7160e01b5f52602260045260245ffd5b91607f1691611f2e565b818110611f62575050565b5f8155600101611f57565b90601f8111611f7a575050565b611f93915f52601f60205f20910160051c810190611f57565b565b9190601f8111611fa457505050565b611f93925f5260205f20906020601f840160051c83019310611fce575b601f0160051c0190611f57565b9091508190611fc1565b91909182516001600160401b038111610b8d57611fff81611ff98454611f1f565b84611f95565b602080601f83116001146120395750819293945f9261202e575b50508160011b915f199060031b1c1916179055565b015190505f80612019565b90601f19831695845f52825f20925f905b88821061208157505083600195969710612069575b505050811b019055565b01515f1960f88460031b161c191690555f808061205f565b8060018596829496860151815501950193019061204a565b6120a38154611f1f565b90816120ad575050565b81601f5f93116001146120be575055565b9080839182526120dd601f60208420940160051c840160018501611f57565b5555565b90815491600160401b831015610b8d578261032c916001611f9395018155611e76565b9181811061211157505050565b611f93925f5260205f209182019101611f57565b1561212c57565b60405162461bcd60e51b815260206004820152602b60248201527f4f6e6c792070726f7065727479206f776e65722063616e20706572666f726d2060448201526a3a3434b99030b1ba34b7b760a91b6064820152608490fd5b1561218c57565b60405162461bcd60e51b815260206004820152601d60248201527f446f63756d656e7420686173682063616e6e6f7420626520656d7074790000006044820152606490fd5b156121d857565b60405162461bcd60e51b815260206004820152601760248201527f50726f706572747920646f6573206e6f742065786973740000000000000000006044820152606490fd5b8054821015611e8b575f52600760205f20910201905f90565b906040519182815491828252602092838301915f52835f20935f905b82821061226857505050611f9392500383611db8565b855484526001958601958895509381019390910190612252565b905f929180549161229283611f1f565b9182825260019384811690815f146122f057506001146122b3575b50505050565b90919394505f52602092835f2092845f945b8386106122dc57505050500101905f8080806122ad565b8054858701830152940193859082016122c5565b9294505050602093945060ff191683830152151560051b0101905f8080806122ad565b90815461231f81611f08565b9260409361232f85519182611db8565b82815280946020809201925f52815f20905f935b85851061235257505050505050565b6001848192845161236781610763818a612282565b815201930194019391612343565b90808214612449576123878154611f1f565b906001600160401b038211610b8d5781906123ac826123a68654611f1f565b86611f95565b5f90601f83116001146123df575f926123d45750508160011b915f199060031b1c1916179055565b015490505f80612019565b81526020808220858352818320935090601f1985169083905b82821061243057505090846001959493921061241857505050811b019055565b01545f1960f88460031b161c191690555f808061205f565b84958192958501548155600180910196019401906123f8565b505056fe34c384bc1555b513f6d93008e93fb2e7db67dc62e1f179090e484e6149c8e5afa26469706673582212204676eb8a0dec5a3110c4a75df4974b43c835e63fa3e45ad62fd82c063a42cc5b64736f6c63430008140033",
  "immutableReferences": {},
  "source": "// SPDX-License-Identifier: MIT\r\npragma solidity ^0.8.20;\r\n\r\nimport \"./LandStructs.sol\";\r\nimport \"./LandModifiers.sol\";\r\n\r\ncontract PropertyRegistry is PropertyModifiers {\r\n    uint256 public propertyCounter;\r\n    mapping(uint256 => OwnershipHistory) internal propertyHistory;\r\n    mapping(uint256 => Dispute[]) internal propertyDisputes;\r\n    mapping(address => uint256[]) public ownerToProperties;\r\n\r\n    event PropertyRegistered(uint256 indexed propertyId, address indexed owner, string propertyType, string propertyAddress);\r\n    event OwnershipTransferred(uint256 indexed propertyId, address indexed from, address indexed to, uint256 price);\r\n    event PropertyValuationUpdated(uint256 indexed propertyId, uint256 newValuation);\r\n    event PropertyStatusChanged(uint256 indexed propertyId, string newStatus);\r\n    event DocumentAdded(uint256 indexed propertyId, string documentHash);\r\n    event PropertyVerified(uint256 indexed propertyId, address indexed verifier);\r\n    event DisputeRaised(uint256 indexed propertyId, address indexed complainant);\r\n    event DisputeResolved(uint256 indexed propertyId, address indexed resolver);\r\n    event DocumentRemoved(uint256 indexed propertyId, string documentHash);\r\n    event SaleStatusReverted(uint256 indexed propertyId);\r\n    event PropertySetForSale(uint256 indexed propertyId, uint256 price);\r\n\r\n    constructor() {\r\n        _initializeVerifier(msg.sender);\r\n    }\r\n\r\n    function registerProperty(\r\n        string memory _propertyType,\r\n        string memory _propertyAddress,\r\n        uint256 _size,\r\n        uint256 _bedrooms,\r\n        uint256 _bathrooms,\r\n        uint256 _constructionYear,\r\n        string memory _amenities\r\n    ) public {\r\n        require(bytes(_propertyType).length > 0, \"Property type cannot be empty\");\r\n        require(bytes(_propertyAddress).length > 0, \"Property address cannot be empty\");\r\n        require(_size > 0, \"Size must be greater than 0\");\r\n        require(_constructionYear > 0, \"Construction year must be valid\");\r\n\r\n        propertyCounter++;\r\n        Property memory newProperty = Property({\r\n            propertyId: propertyCounter,\r\n            owner: msg.sender,\r\n            propertyType: _propertyType,\r\n            propertyAddress: _propertyAddress,\r\n            size: _size,\r\n            bedrooms: _bedrooms,\r\n            bathrooms: _bathrooms,\r\n            constructionYear: _constructionYear,\r\n            amenities: _amenities,\r\n            valuation: 0,\r\n            isForSale: false,\r\n            salePrice: 0,\r\n            status: \"Registered\",\r\n            isVerified: false,\r\n            verifiedBy: address(0),\r\n            verificationDate: 0,\r\n            documents: new string[](0)\r\n        });\r\n\r\n        properties[propertyCounter] = newProperty;\r\n        ownerToProperties[msg.sender].push(propertyCounter);\r\n        \r\n        OwnershipHistory memory history = OwnershipHistory({\r\n            previousOwners: new address[](0),\r\n            transferDates: new uint256[](0),\r\n            prices: new uint256[](0),\r\n            transferReasons: new string[](0)\r\n        });\r\n        \r\n        propertyHistory[propertyCounter] = history;\r\n        \r\n        emit PropertyRegistered(propertyCounter, msg.sender, _propertyType, _propertyAddress);\r\n    }\r\n\r\n    function transferProperty(uint256 _propertyId, address _to) external {\r\n        require(_to != address(0), \"Invalid address\");\r\n        Property storage property = properties[_propertyId];\r\n        require(msg.sender == property.owner, \"Only owner can transfer property\");\r\n        \r\n        address previousOwner = property.owner;\r\n        property.owner = _to;\r\n\r\n        // Update history\r\n        OwnershipHistory storage history = propertyHistory[_propertyId];\r\n        history.previousOwners.push(previousOwner);\r\n        history.transferDates.push(block.timestamp);\r\n        history.prices.push(property.salePrice);\r\n        history.transferReasons.push(\"\");\r\n\r\n        // Update owner mapping\r\n        ownerToProperties[_to].push(_propertyId);\r\n        \r\n        // Remove from old owner's list\r\n        uint256[] storage fromProperties = ownerToProperties[msg.sender];\r\n        for (uint256 i = 0; i < fromProperties.length; i++) {\r\n            if (fromProperties[i] == _propertyId) {\r\n                fromProperties[i] = fromProperties[fromProperties.length - 1];\r\n                fromProperties.pop();\r\n                break;\r\n            }\r\n        }\r\n\r\n        // Reset sale status after transfer\r\n        property.isForSale = false;\r\n        property.salePrice = 0;\r\n        property.status = \"Registered\";\r\n\r\n        emit OwnershipTransferred(_propertyId, msg.sender, _to, property.salePrice);\r\n        emit PropertyStatusChanged(_propertyId, \"Registered\");\r\n    }\r\n\r\n    function updateValuation(uint256 _propertyId, uint256 _newValuation) external onlyOwner(_propertyId) {\r\n        properties[_propertyId].valuation = _newValuation;\r\n        emit PropertyValuationUpdated(_propertyId, _newValuation);\r\n    }\r\n\r\n    function setForSale(uint256 _propertyId, uint256 _price) external onlyOwner(_propertyId) {\r\n        Property storage property = properties[_propertyId];\r\n        property.isForSale = true;\r\n        property.salePrice = _price;\r\n        property.status = \"For Sale\";\r\n        emit PropertySetForSale(_propertyId, _price);\r\n        emit PropertyStatusChanged(_propertyId, \"For Sale\");\r\n    }\r\n\r\n    function addDocument(uint256 _propertyId, string memory _documentHash) external onlyOwner(_propertyId) {\r\n        require(bytes(_documentHash).length > 0, \"Document hash cannot be empty\");\r\n        properties[_propertyId].documents.push(_documentHash);\r\n        emit DocumentAdded(_propertyId, _documentHash);\r\n    }\r\n\r\n    function verifyProperty(uint256 _propertyId) external onlyVerifier {\r\n        Property storage property = properties[_propertyId];\r\n        require(!property.isVerified, \"Property already verified\");\r\n        \r\n        property.isVerified = true;\r\n        property.verifiedBy = msg.sender;\r\n        property.verificationDate = block.timestamp;\r\n        property.status = \"Verified\";\r\n        \r\n        emit PropertyVerified(_propertyId, msg.sender);\r\n        emit PropertyStatusChanged(_propertyId, \"Verified\");\r\n    }\r\n\r\n    function raiseDispute(uint256 _propertyId, string memory _reason) external {\r\n        require(_propertyId <= propertyCounter, \"Property does not exist\");\r\n        require(bytes(_reason).length > 0, \"Reason cannot be empty\");\r\n        \r\n        propertyDisputes[_propertyId].push(Dispute({\r\n            propertyId: _propertyId,\r\n            complainant: msg.sender,\r\n            reason: _reason,\r\n            isResolved: false,\r\n            resolution: \"\",\r\n            resolvedBy: address(0),\r\n            resolutionDate: 0\r\n        }));\r\n        \r\n        emit DisputeRaised(_propertyId, msg.sender);\r\n    }\r\n\r\n    function resolveDispute(uint256 _propertyId, uint256 _disputeIndex, string memory _resolution) external onlyVerifier {\r\n        require(_propertyId <= propertyCounter, \"Property does not exist\");\r\n        require(_disputeIndex < propertyDisputes[_propertyId].length, \"Invalid dispute index\");\r\n        require(bytes(_resolution).length > 0, \"Resolution cannot be empty\");\r\n        \r\n        Dispute storage dispute = propertyDisputes[_propertyId][_disputeIndex];\r\n        require(!dispute.isResolved, \"Dispute already resolved\");\r\n        \r\n        dispute.isResolved = true;\r\n        dispute.resolution = _resolution;\r\n        dispute.resolvedBy = msg.sender;\r\n        dispute.resolutionDate = block.timestamp;\r\n        \r\n        emit DisputeResolved(_propertyId, msg.sender);\r\n    }\r\n\r\n    function getMyProperties() external view returns (uint256[] memory) {\r\n        return ownerToProperties[msg.sender];\r\n    }\r\n\r\n    function getPropertyDetails(uint256 _propertyId) external view returns (\r\n        uint256 propertyId,\r\n        address owner,\r\n        string memory propertyType,\r\n        string memory propertyAddress,\r\n        uint256 size,\r\n        uint256 bedrooms,\r\n        uint256 bathrooms,\r\n        uint256 constructionYear,\r\n        string memory amenities,\r\n        uint256 valuation,\r\n        bool isForSale,\r\n        uint256 salePrice,\r\n        string memory status,\r\n        bool isVerified,\r\n        address verifiedBy,\r\n        uint256 verificationDate,\r\n        string[] memory documents\r\n    ) {\r\n        Property memory property = properties[_propertyId];\r\n        return (\r\n            property.propertyId,\r\n            property.owner,\r\n            property.propertyType,\r\n            property.propertyAddress,\r\n            property.size,\r\n            property.bedrooms,\r\n            property.bathrooms,\r\n            property.constructionYear,\r\n            property.amenities,\r\n            property.valuation,\r\n            property.isForSale,\r\n            property.salePrice,\r\n            property.status,\r\n            property.isVerified,\r\n            property.verifiedBy,\r\n            property.verificationDate,\r\n            property.documents\r\n        );\r\n    }\r\n\r\n    function getPropertyHistory(uint256 _propertyId) external view returns (\r\n        address[] memory previousOwners,\r\n        uint256[] memory transferDates,\r\n        uint256[] memory prices,\r\n        string[] memory transferReasons\r\n    ) {\r\n        require(_propertyId <= propertyCounter, \"Property does not exist\");\r\n        OwnershipHistory storage history = propertyHistory[_propertyId];\r\n        return (history.previousOwners, history.transferDates, history.prices, history.transferReasons);\r\n    }\r\n\r\n    function getPropertyDisputes(uint256 _propertyId) external view returns (Dispute[] memory) {\r\n        require(_propertyId <= propertyCounter, \"Property does not exist\");\r\n        return propertyDisputes[_propertyId];\r\n    }\r\n\r\n    function removeDocument(uint256 _propertyId, string memory _documentHash) external onlyOwner(_propertyId) {\r\n        require(bytes(_documentHash).length > 0, \"Document hash cannot be empty\");\r\n        Property storage property = properties[_propertyId];\r\n        \r\n        // Find and remove the document\r\n        string[] storage documents = property.documents;\r\n        bool found = false;\r\n        uint256 indexToRemove;\r\n        \r\n        for(uint256 i = 0; i < documents.length; i++) {\r\n            if(keccak256(bytes(documents[i])) == keccak256(bytes(_documentHash))) {\r\n                found = true;\r\n                indexToRemove = i;\r\n                break;\r\n            }\r\n        }\r\n        \r\n        require(found, \"Document not found\");\r\n        \r\n        // Remove the document by shifting elements\r\n        for(uint256 i = indexToRemove; i < documents.length - 1; i++) {\r\n            documents[i] = documents[i + 1];\r\n        }\r\n        documents.pop();\r\n        \r\n        emit DocumentRemoved(_propertyId, _documentHash);\r\n    }\r\n\r\n    function revertSaleStatus(uint256 _propertyId) external onlyOwner(_propertyId) {\r\n        Property storage property = properties[_propertyId];\r\n        require(property.isForSale, \"Property is not for sale\");\r\n        \r\n        property.isForSale = false;\r\n        property.salePrice = 0;\r\n        property.status = \"Registered\";\r\n        \r\n        emit SaleStatusReverted(_propertyId);\r\n        emit PropertyStatusChanged(_propertyId, \"Registered\");\r\n    }\r\n\r\n    function getPropertiesByOwner(address _owner) external view returns (uint256[] memory) {\r\n        return ownerToProperties[_owner];\r\n    }\r\n} ",
  "sourcePath": "C:\\Users\\ankit\\Desktop\\SEM-6\\BC\\Land Registration\\contracts\\LandRegistry.sol",
  "compiler": {
    "name": "solc",
    "version": "0.8.20+commit.a1b79de6.Emscripten.clang"
  },
  "schemaVersion": "3.4.16",
  "updatedAt": "2025-04-27T05:34:22.399Z",
  "networkType": "ethereum",
  "devdoc": {
    "kind": "dev",
    "methods": {},
    "version": 1
  },
  "userdoc": {
    "kind": "user",
    "methods": {},
    "version": 1
  }
}